{
  "contractName": "FlashApp",
  "abi": [
    {
      "inputs": [
        {
          "internalType": "contract ILendingPoolAddressesProvider",
          "name": "provider",
          "type": "address"
        }
      ],
      "stateMutability": "nonpayable",
      "type": "constructor"
    },
    {
      "inputs": [],
      "name": "ADDRESSES_PROVIDER",
      "outputs": [
        {
          "internalType": "contract ILendingPoolAddressesProvider",
          "name": "",
          "type": "address"
        }
      ],
      "stateMutability": "view",
      "type": "function"
    },
    {
      "inputs": [],
      "name": "LENDING_POOL",
      "outputs": [
        {
          "internalType": "contract ILendingPool",
          "name": "",
          "type": "address"
        }
      ],
      "stateMutability": "view",
      "type": "function"
    },
    {
      "inputs": [],
      "name": "owner",
      "outputs": [
        {
          "internalType": "address",
          "name": "",
          "type": "address"
        }
      ],
      "stateMutability": "view",
      "type": "function"
    },
    {
      "inputs": [
        {
          "internalType": "uint256",
          "name": "amount",
          "type": "uint256"
        }
      ],
      "name": "deposit",
      "outputs": [],
      "stateMutability": "payable",
      "type": "function"
    },
    {
      "inputs": [
        {
          "internalType": "uint256",
          "name": "amount",
          "type": "uint256"
        }
      ],
      "name": "withdraw",
      "outputs": [],
      "stateMutability": "nonpayable",
      "type": "function"
    },
    {
      "inputs": [
        {
          "internalType": "address[]",
          "name": "assets",
          "type": "address[]"
        },
        {
          "internalType": "uint256[]",
          "name": "amounts",
          "type": "uint256[]"
        },
        {
          "internalType": "uint256[]",
          "name": "premiums",
          "type": "uint256[]"
        },
        {
          "internalType": "address",
          "name": "",
          "type": "address"
        },
        {
          "internalType": "bytes",
          "name": "",
          "type": "bytes"
        }
      ],
      "name": "executeOperation",
      "outputs": [
        {
          "internalType": "bool",
          "name": "operatorionSuccessful",
          "type": "bool"
        }
      ],
      "stateMutability": "nonpayable",
      "type": "function"
    },
    {
      "inputs": [
        {
          "internalType": "address",
          "name": "token",
          "type": "address"
        },
        {
          "internalType": "uint256",
          "name": "amount",
          "type": "uint256"
        },
        {
          "internalType": "uint256",
          "name": "mode",
          "type": "uint256"
        },
        {
          "internalType": "address",
          "name": "sender",
          "type": "address"
        },
        {
          "internalType": "address",
          "name": "receiver",
          "type": "address"
        },
        {
          "internalType": "uint256",
          "name": "fee",
          "type": "uint256"
        }
      ],
      "name": "initiateFlashLoan",
      "outputs": [],
      "stateMutability": "nonpayable",
      "type": "function"
    }
  ],
  "bytecode": "0x60c06040523480156200001157600080fd5b5060405162001690380380620016908339818101604052810190620000379190620001c9565b808073ffffffffffffffffffffffffffffffffffffffff1660808173ffffffffffffffffffffffffffffffffffffffff1660601b815250508073ffffffffffffffffffffffffffffffffffffffff16630261bf8b6040518163ffffffff1660e01b815260040160206040518083038186803b158015620000b657600080fd5b505afa158015620000cb573d6000803e3d6000fd5b505050506040513d601f19601f82011682018060405250810190620000f191906200019d565b73ffffffffffffffffffffffffffffffffffffffff1660a08173ffffffffffffffffffffffffffffffffffffffff1660601b8152505050336000806101000a81548173ffffffffffffffffffffffffffffffffffffffff021916908373ffffffffffffffffffffffffffffffffffffffff1602179055505062000271565b60008151905062000180816200023d565b92915050565b600081519050620001978162000257565b92915050565b600060208284031215620001b057600080fd5b6000620001c0848285016200016f565b91505092915050565b600060208284031215620001dc57600080fd5b6000620001ec8482850162000186565b91505092915050565b600062000202826200021d565b9050919050565b60006200021682620001f5565b9050919050565b600073ffffffffffffffffffffffffffffffffffffffff82169050919050565b6200024881620001f5565b81146200025457600080fd5b50565b620002628162000209565b81146200026e57600080fd5b50565b60805160601c60a05160601c6113eb620002a56000398061055352806106da528061078c5250806101a352506113eb6000f3fe6080604052600436106100705760003560e01c80638da5cb5b1161004e5780638da5cb5b146100f2578063920f5c841461011d578063b4dcfc771461015a578063b6b55f251461018557610070565b80630542975c146100755780632e1a7d4d146100a05780635c234046146100c9575b600080fd5b34801561008157600080fd5b5061008a6101a1565b60405161009791906110d9565b60405180910390f35b3480156100ac57600080fd5b506100c760048036038101906100c29190610bd1565b6101c5565b005b3480156100d557600080fd5b506100f060048036038101906100eb9190610a37565b61038d565b005b3480156100fe57600080fd5b506101076105f5565b6040516101149190610fef565b60405180910390f35b34801561012957600080fd5b50610144600480360381019061013f9190610ac0565b610619565b60405161015191906110be565b60405180910390f35b34801561016657600080fd5b5061016f61078a565b60405161017c91906110f4565b60405180910390f35b61019f600480360381019061019a9190610bd1565b6107ae565b005b7f000000000000000000000000000000000000000000000000000000000000000081565b60008111610208576040517f08c379a00000000000000000000000000000000000000000000000000000000081526004016101ff9061114f565b60405180910390fd5b80600160003373ffffffffffffffffffffffffffffffffffffffff1673ffffffffffffffffffffffffffffffffffffffff16815260200190815260200160002054101561028a576040517f08c379a0000000000000000000000000000000000000000000000000000000008152600401610281906111af565b60405180910390fd5b3373ffffffffffffffffffffffffffffffffffffffff166108fc600160003373ffffffffffffffffffffffffffffffffffffffff1673ffffffffffffffffffffffffffffffffffffffff168152602001908152602001600020549081150290604051600060405180830381858888f1935050505061033d576040517f08c379a00000000000000000000000000000000000000000000000000000000081526004016103349061110f565b60405180910390fd5b80600160003373ffffffffffffffffffffffffffffffffffffffff1673ffffffffffffffffffffffffffffffffffffffff1681526020019081526020016000206000828254039250508190555050565b808502600160008573ffffffffffffffffffffffffffffffffffffffff1673ffffffffffffffffffffffffffffffffffffffff1681526020019081526020016000205410156103db57600080fd5b6060600167ffffffffffffffff811180156103f557600080fd5b506040519080825280602002602001820160405280156104245781602001602082028036833780820191505090505b509050868160008151811061043557fe5b602002602001019073ffffffffffffffffffffffffffffffffffffffff16908173ffffffffffffffffffffffffffffffffffffffff16815250506060600167ffffffffffffffff8111801561048957600080fd5b506040519080825280602002602001820160405280156104b85781602001602082028036833780820191505090505b50905086816000815181106104c957fe5b6020026020010181815250506060600167ffffffffffffffff811180156104ef57600080fd5b5060405190808252806020026020018201604052801561051e5781602001602082028036833780820191505090505b509050868160008151811061052f57fe5b602002602001018181525050606060405180602001604052806000815250905060007f000000000000000000000000000000000000000000000000000000000000000073ffffffffffffffffffffffffffffffffffffffff1663ab9c4b5d888787878d88886040518863ffffffff1660e01b81526004016105b6979695949392919061100a565b600060405180830381600087803b1580156105d057600080fd5b505af11580156105e4573d6000803e3d6000fd5b505050505050505050505050505050565b60008054906101000a900473ffffffffffffffffffffffffffffffffffffffff1681565b60006040517f08c379a000000000000000000000000000000000000000000000000000000000815260040161064d9061118f565b60405180910390fd5b8a8a905081101561077857600061069a88888481811061067257fe5b905060200201358b8b8581811061068557fe5b9050602002013561089c90919063ffffffff16565b90508b8b838181106106a857fe5b90506020020160208101906106bd9190610a0e565b73ffffffffffffffffffffffffffffffffffffffff1663095ea7b37f0000000000000000000000000000000000000000000000000000000000000000836040518363ffffffff1660e01b8152600401610717929190611095565b602060405180830381600087803b15801561073157600080fd5b505af1158015610745573d6000803e3d6000fd5b505050506040513d601f19601f820116820180604052508101906107699190610ba8565b50508080600101915050610656565b50600190509998505050505050505050565b7f000000000000000000000000000000000000000000000000000000000000000081565b6000811180156107d45750803373ffffffffffffffffffffffffffffffffffffffff1631115b610813576040517f08c379a000000000000000000000000000000000000000000000000000000000815260040161080a9061116f565b60405180910390fd5b348114610855576040517f08c379a000000000000000000000000000000000000000000000000000000000815260040161084c906111cf565b60405180910390fd5b80600160003373ffffffffffffffffffffffffffffffffffffffff1673ffffffffffffffffffffffffffffffffffffffff1681526020019081526020016000208190555050565b6000808284019050838110156108e7576040517f08c379a00000000000000000000000000000000000000000000000000000000081526004016108de9061112f565b60405180910390fd5b8091505092915050565b60008135905061090081611370565b92915050565b60008083601f84011261091857600080fd5b8235905067ffffffffffffffff81111561093157600080fd5b60208301915083602082028301111561094957600080fd5b9250929050565b60008083601f84011261096257600080fd5b8235905067ffffffffffffffff81111561097b57600080fd5b60208301915083602082028301111561099357600080fd5b9250929050565b6000815190506109a981611387565b92915050565b60008083601f8401126109c157600080fd5b8235905067ffffffffffffffff8111156109da57600080fd5b6020830191508360018202830111156109f257600080fd5b9250929050565b600081359050610a088161139e565b92915050565b600060208284031215610a2057600080fd5b6000610a2e848285016108f1565b91505092915050565b60008060008060008060c08789031215610a5057600080fd5b6000610a5e89828a016108f1565b9650506020610a6f89828a016109f9565b9550506040610a8089828a016109f9565b9450506060610a9189828a016108f1565b9350506080610aa289828a016108f1565b92505060a0610ab389828a016109f9565b9150509295509295509295565b600080600080600080600080600060a08a8c031215610ade57600080fd5b60008a013567ffffffffffffffff811115610af857600080fd5b610b048c828d01610906565b995099505060208a013567ffffffffffffffff811115610b2357600080fd5b610b2f8c828d01610950565b975097505060408a013567ffffffffffffffff811115610b4e57600080fd5b610b5a8c828d01610950565b95509550506060610b6d8c828d016108f1565b93505060808a013567ffffffffffffffff811115610b8a57600080fd5b610b968c828d016109af565b92509250509295985092959850929598565b600060208284031215610bba57600080fd5b6000610bc88482850161099a565b91505092915050565b600060208284031215610be357600080fd5b6000610bf1848285016109f9565b91505092915050565b6000610c068383610c2a565b60208301905092915050565b6000610c1e8383610fd1565b60208301905092915050565b610c338161128e565b82525050565b610c428161128e565b82525050565b6000610c538261120f565b610c5d818561124a565b9350610c68836111ef565b8060005b83811015610c99578151610c808882610bfa565b9750610c8b83611230565b925050600181019050610c6c565b5085935050505092915050565b6000610cb18261121a565b610cbb818561125b565b9350610cc6836111ff565b8060005b83811015610cf7578151610cde8882610c12565b9750610ce98361123d565b925050600181019050610cca565b5085935050505092915050565b610d0d816112a0565b82525050565b6000610d1e82611225565b610d28818561126c565b9350610d3881856020860161132c565b610d418161135f565b840191505092915050565b610d55816112e4565b82525050565b610d6481611308565b82525050565b6000610d7760198361127d565b91507f4661696c656420746f20776974686472617720616d6f756e74000000000000006000830152602082019050919050565b6000610db7601b8361127d565b91507f536166654d6174683a206164646974696f6e206f766572666c6f7700000000006000830152602082019050919050565b6000610df7601d8361127d565b91507f416d6f756e74206d7573742062652067726561746572207468616e20300000006000830152602082019050919050565b6000610e3760448361127d565b91507f416d6f756e74206c657373207468616e2030206f722077616c6c65742062616c60008301527f616e636520646f6573206e6f74206861766520616d6f756e7420746f2064657060208301527f6f736974000000000000000000000000000000000000000000000000000000006040830152606082019050919050565b6000610ec360198361127d565b91507f544f444f3a20466c6173686c6f616e204f7065726174696f6e000000000000006000830152602082019050919050565b6000610f0360338361127d565b91507f42616c616e6365206c657373207468616e20616d6f756e7420796f752061726560008301527f20747279696e6720746f207769746864726177000000000000000000000000006020830152604082019050919050565b6000610f6960248361127d565b91507f416d6f756e74206973206e6f74207468652073616d652061732076616c75652060008301527f73656e74000000000000000000000000000000000000000000000000000000006020830152604082019050919050565b610fcb816112ac565b82525050565b610fda816112da565b82525050565b610fe9816112da565b82525050565b60006020820190506110046000830184610c39565b92915050565b600060e08201905061101f600083018a610c39565b81810360208301526110318189610c48565b905081810360408301526110458188610ca6565b905081810360608301526110598187610ca6565b90506110686080830186610c39565b81810360a083015261107a8185610d13565b905061108960c0830184610fc2565b98975050505050505050565b60006040820190506110aa6000830185610c39565b6110b76020830184610fe0565b9392505050565b60006020820190506110d36000830184610d04565b92915050565b60006020820190506110ee6000830184610d4c565b92915050565b60006020820190506111096000830184610d5b565b92915050565b6000602082019050818103600083015261112881610d6a565b9050919050565b6000602082019050818103600083015261114881610daa565b9050919050565b6000602082019050818103600083015261116881610dea565b9050919050565b6000602082019050818103600083015261118881610e2a565b9050919050565b600060208201905081810360008301526111a881610eb6565b9050919050565b600060208201905081810360008301526111c881610ef6565b9050919050565b600060208201905081810360008301526111e881610f5c565b9050919050565b6000819050602082019050919050565b6000819050602082019050919050565b600081519050919050565b600081519050919050565b600081519050919050565b6000602082019050919050565b6000602082019050919050565b600082825260208201905092915050565b600082825260208201905092915050565b600082825260208201905092915050565b600082825260208201905092915050565b6000611299826112ba565b9050919050565b60008115159050919050565b600061ffff82169050919050565b600073ffffffffffffffffffffffffffffffffffffffff82169050919050565b6000819050919050565b60006112ef826112f6565b9050919050565b6000611301826112ba565b9050919050565b60006113138261131a565b9050919050565b6000611325826112ba565b9050919050565b60005b8381101561134a57808201518184015260208101905061132f565b83811115611359576000848401525b50505050565b6000601f19601f8301169050919050565b6113798161128e565b811461138457600080fd5b50565b611390816112a0565b811461139b57600080fd5b50565b6113a7816112da565b81146113b257600080fd5b5056fea264697066735822122015c4917d08d1f537131050a253573e262e29280a17e10cb6cbff83e59805346e64736f6c634300060c0033",
  "immutableReferences": {
    "288": [
      {
        "length": 32,
        "start": 419
      }
    ],
    "291": [
      {
        "length": 32,
        "start": 1363
      },
      {
        "length": 32,
        "start": 1754
      },
      {
        "length": 32,
        "start": 1932
      }
    ]
  },
  "source": "// SPDX-License-Identifier: MIT\npragma solidity 0.6.12;\npragma experimental ABIEncoderV2;\n\nimport { ILendingPool, ILendingPoolAddressesProvider, IERC20 } from './Interfaces.sol';\nimport { FlashLoanReceiverBase } from './FlashLoanReceiverBase.sol';\n\ncontract FlashApp is FlashLoanReceiverBase {\n  address public owner;\n  mapping (address => uint256) accounts;\n\n  // TODO: Events\n\n  constructor(ILendingPoolAddressesProvider provider) FlashLoanReceiverBase(provider) public {\n\n    // Set contract owner\n    owner = msg.sender;\n\n  }\n\n  // Allow user to deposit funds to contract\n  // Used for Flash Loan premium (fee) deposit\n  function deposit(uint256 amount) public payable {\n\n    // Validate amount\n    require(amount > 0 && msg.sender.balance > amount, \"Amount less than 0 or wallet balance does not have amount to deposit\");\n    require(amount == msg.value, \"Amount is not the same as value sent\");\n\n    // Update accounts with new amount deposited\n    accounts[msg.sender] = amount;\n\n\n    // TODO: Emit event\n\n  }\n\n  // Allow user to withdraw funds from contract\n  function withdraw(uint256 amount) public {\n\n    // Validate amount\n    require(amount > 0, \"Amount must be greater than 0\");\n    require(accounts[msg.sender] >= amount, \"Balance less than amount you are trying to withdraw\");\n\n    // Transfer amount to user\n    require(msg.sender.send(accounts[msg.sender]), \"Failed to withdraw amount\");\n\n    // Update accounts\n    accounts[msg.sender] -= amount;\n\n    // TODO: Emit event\n\n\n  }\n\n  // Once flash loan is received, this method is excuted\n  // After flashloan operation is completed, the amount + fee is paid back to the lending pool\n  function executeOperation(address[] calldata assets, uint256[] calldata amounts, uint256[] calldata premiums, address, bytes calldata) public override returns (bool operatorionSuccessful) {\n\n    // TODO\n    revert(\"TODO: Flashloan Operation\");\n\n    // Pay debt back to lending pool (amount owed + fee)\n    for (uint i = 0; i < assets.length; i++) {\n\n      uint amountOwed = amounts[i].add(premiums[i]);\n      IERC20(assets[i]).approve(address(LENDING_POOL), amountOwed);\n\n    }\n\n    return true;\n\n  }\n\n  // Attempt to retrieve a flashloan for requested amount\n  function initiateFlashLoan(address token, uint256 amount, uint256 mode, address sender, address receiver, uint256 fee) public {\n\n    // Make sure user deposited amount to cover fee\n    require(accounts[sender] >= amount * fee);\n\n    address[] memory assets = new address[](1);\n    assets[0] = token;\n\n    uint256[] memory amounts = new uint256[](1);\n    amounts[0] = amount;\n\n    uint256[] memory modes = new uint256[](1);\n    modes[0] = mode;\n\n    bytes memory params = \"\";\n    uint16 referralCode = 0;\n\n    LENDING_POOL.flashLoan(receiver, assets, amounts, modes, sender, params, referralCode);\n\n    // TODO: Emit event\n\n\n  }\n\n}\n",
  "sourcePath": "/Users/traylorboy/Desktop/eidoo/FlashApp/flash-app/contracts/FlashApp.sol",
  "compiler": {
    "name": "solc",
    "version": "0.6.12+commit.27d51765.Emscripten.clang"
  },
  "schemaVersion": "3.4.1",
  "updatedAt": "2021-06-17T14:25:46.026Z",
  "devdoc": {
    "kind": "dev",
    "methods": {},
    "version": 1
  },
  "userdoc": {
    "kind": "user",
    "methods": {},
    "version": 1
  }
}