{
  "contractName": "FlashApp",
  "abi": [
    {
      "inputs": [
        {
          "internalType": "contract ILendingPoolAddressesProvider",
          "name": "provider",
          "type": "address"
        }
      ],
      "stateMutability": "nonpayable",
      "type": "constructor"
    },
    {
      "anonymous": false,
      "inputs": [
        {
          "indexed": true,
          "internalType": "address",
          "name": "from",
          "type": "address"
        },
        {
          "indexed": false,
          "internalType": "uint256",
          "name": "amount",
          "type": "uint256"
        }
      ],
      "name": "Deposit",
      "type": "event"
    },
    {
      "anonymous": false,
      "inputs": [
        {
          "indexed": true,
          "internalType": "address",
          "name": "from",
          "type": "address"
        }
      ],
      "name": "FlashBang",
      "type": "event"
    },
    {
      "anonymous": false,
      "inputs": [
        {
          "indexed": true,
          "internalType": "address",
          "name": "from",
          "type": "address"
        },
        {
          "indexed": false,
          "internalType": "uint256",
          "name": "amount",
          "type": "uint256"
        }
      ],
      "name": "Withdrawal",
      "type": "event"
    },
    {
      "inputs": [],
      "name": "ADDRESSES_PROVIDER",
      "outputs": [
        {
          "internalType": "contract ILendingPoolAddressesProvider",
          "name": "",
          "type": "address"
        }
      ],
      "stateMutability": "view",
      "type": "function"
    },
    {
      "inputs": [],
      "name": "LENDING_POOL",
      "outputs": [
        {
          "internalType": "contract ILendingPool",
          "name": "",
          "type": "address"
        }
      ],
      "stateMutability": "view",
      "type": "function"
    },
    {
      "stateMutability": "payable",
      "type": "receive"
    },
    {
      "inputs": [],
      "name": "flashBang",
      "outputs": [],
      "stateMutability": "nonpayable",
      "type": "function"
    },
    {
      "inputs": [
        {
          "internalType": "uint256",
          "name": "amount",
          "type": "uint256"
        }
      ],
      "name": "deposit",
      "outputs": [],
      "stateMutability": "payable",
      "type": "function"
    },
    {
      "inputs": [
        {
          "internalType": "uint256",
          "name": "amount",
          "type": "uint256"
        }
      ],
      "name": "withdraw",
      "outputs": [],
      "stateMutability": "nonpayable",
      "type": "function"
    },
    {
      "inputs": [],
      "name": "balance",
      "outputs": [
        {
          "internalType": "uint256",
          "name": "",
          "type": "uint256"
        }
      ],
      "stateMutability": "view",
      "type": "function"
    },
    {
      "inputs": [
        {
          "internalType": "address",
          "name": "account",
          "type": "address"
        }
      ],
      "name": "balanceFor",
      "outputs": [
        {
          "internalType": "uint256",
          "name": "",
          "type": "uint256"
        }
      ],
      "stateMutability": "nonpayable",
      "type": "function"
    },
    {
      "inputs": [
        {
          "internalType": "address[]",
          "name": "assets",
          "type": "address[]"
        },
        {
          "internalType": "uint256[]",
          "name": "amounts",
          "type": "uint256[]"
        },
        {
          "internalType": "uint256[]",
          "name": "premiums",
          "type": "uint256[]"
        },
        {
          "internalType": "address",
          "name": "",
          "type": "address"
        },
        {
          "internalType": "bytes",
          "name": "",
          "type": "bytes"
        }
      ],
      "name": "executeOperation",
      "outputs": [
        {
          "internalType": "bool",
          "name": "operatorionSuccessful",
          "type": "bool"
        }
      ],
      "stateMutability": "nonpayable",
      "type": "function"
    },
    {
      "inputs": [
        {
          "internalType": "address",
          "name": "token",
          "type": "address"
        },
        {
          "internalType": "uint256",
          "name": "amount",
          "type": "uint256"
        },
        {
          "internalType": "uint256",
          "name": "mode",
          "type": "uint256"
        },
        {
          "internalType": "address",
          "name": "sender",
          "type": "address"
        },
        {
          "internalType": "address",
          "name": "receiver",
          "type": "address"
        },
        {
          "internalType": "uint256",
          "name": "fee",
          "type": "uint256"
        }
      ],
      "name": "initiateFlashLoan",
      "outputs": [],
      "stateMutability": "nonpayable",
      "type": "function"
    }
  ],
  "bytecode": "0x60c060405234801561001057600080fd5b50604051610e1f380380610e1f83398101604081905261002f916100e9565b80806001600160a01b03166080816001600160a01b031660601b81525050806001600160a01b0316630261bf8b6040518163ffffffff1660e01b815260040160206040518083038186803b15801561008657600080fd5b505afa15801561009a573d6000803e3d6000fd5b505050506040513d601f19601f820116820180604052508101906100be91906100e9565b60601b6001600160601b03191660a052505060008054336001600160a01b0319909116179055610124565b6000602082840312156100fa578081fd5b81516101058161010c565b9392505050565b6001600160a01b038116811461012157600080fd5b50565b60805160601c60a05160601c610cc86101576000398061044e528061055c52806106085250806101b15250610cc86000f3fe60806040526004361061008a5760003560e01c80635c234046116100595780635c23404614610125578063920f5c8414610145578063b4dcfc7714610172578063b69ef8a814610187578063b6b55f251461019c57610091565b80630542975c146100965780632e1a7d4d146100c15780635309f771146100e3578063556849ea146100f857610091565b3661009157005b600080fd5b3480156100a257600080fd5b506100ab6101af565b6040516100b89190610a9f565b60405180910390f35b3480156100cd57600080fd5b506100e16100dc366004610901565b6101d3565b005b3480156100ef57600080fd5b506100e16102be565b34801561010457600080fd5b5061011861011336600461077d565b610321565b6040516100b89190610c89565b34801561013157600080fd5b506100e161014036600461079f565b61033c565b34801561015157600080fd5b50610165610160366004610800565b6104ce565b6040516100b89190610a94565b34801561017e57600080fd5b506100ab610606565b34801561019357600080fd5b5061011861062a565b6100e16101aa366004610901565b61062e565b7f000000000000000000000000000000000000000000000000000000000000000081565b600081116101fc5760405162461bcd60e51b81526004016101f390610b21565b60405180910390fd5b3360009081526001602052604090205481111561022b5760405162461bcd60e51b81526004016101f390610bc6565b3360008181526001602052604080822054905181156108fc0292818181858888f1935050505061026d5760405162461bcd60e51b81526004016101f390610ab3565b336000818152600160205260409081902080548490039055517f7fcf532c15f0a6db0bd6d0e038bea71d30d808c7d98cb3bf7268a95bf5081b65906102b3908490610c89565b60405180910390a250565b6000546001600160a01b031633146102e85760405162461bcd60e51b81526004016101f390610b58565b60405133907fd9c6069d14db33bf2d48eeb8a63f48a8b6d916eec476c577d1424474dca66b5d90600090a26000546001600160a01b0316ff5b6001600160a01b031660009081526001602052604090205490565b6001600160a01b038316600090815260016020526040902054858202111561036357600080fd5b60408051600180825281830190925260609160208083019080368337019050509050868160008151811061039357fe5b6001600160a01b03929092166020928302919091019091015260408051600180825281830190925260609181602001602082028036833701905050905086816000815181106103de57fe5b6020908102919091010152604080516001808252818301909252606091816020016020820280368337019050509050868160008151811061041b57fe5b6020908102919091018101919091526040805191820181526000808352905163ab9c4b5d60e01b81526001600160a01b037f0000000000000000000000000000000000000000000000000000000000000000169063ab9c4b5d9061048f908a908990899089908f908a908a906004016109c4565b600060405180830381600087803b1580156104a957600080fd5b505af11580156104bd573d6000803e3d6000fd5b505050505050505050505050505050565b600060405162461bcd60e51b81526004016101f390610b8f565b898110156105f557600061052988888481811061050157fe5b905060200201358b8b8581811061051457fe5b905060200201356106af90919063ffffffff16565b90508b8b8381811061053757fe5b905060200201602081019061054c919061077d565b6001600160a01b031663095ea7b37f0000000000000000000000000000000000000000000000000000000000000000836040518363ffffffff1660e01b8152600401610599929190610a7b565b602060405180830381600087803b1580156105b357600080fd5b505af11580156105c7573d6000803e3d6000fd5b505050506040513d601f19601f820116820180604052508101906105eb91906108e1565b50506001016104e8565b5060019a9950505050505050505050565b7f000000000000000000000000000000000000000000000000000000000000000081565b4790565b6000811161064e5760405162461bcd60e51b81526004016101f390610c5d565b34811461066d5760405162461bcd60e51b81526004016101f390610c19565b3360008181526001602052604090819020839055517fe1fffcc4923d04b559f4d29a8bfc6cda04eb5b0d3c460751c2402c5c5cc9109c906102b3908490610c89565b6000828201838110156106d45760405162461bcd60e51b81526004016101f390610aea565b90505b92915050565b80356001600160a01b03811681146106d757600080fd5b60008083601f840112610705578182fd5b50813567ffffffffffffffff81111561071c578182fd5b602083019150836020808302850101111561073657600080fd5b9250929050565b60008083601f84011261074e578182fd5b50813567ffffffffffffffff811115610765578182fd5b60208301915083602082850101111561073657600080fd5b60006020828403121561078e578081fd5b61079883836106dd565b9392505050565b60008060008060008060c087890312156107b7578182fd5b6107c188886106dd565b955060208701359450604087013593506107de88606089016106dd565b92506107ed88608089016106dd565b915060a087013590509295509295509295565b600080600080600080600080600060a08a8c03121561081d578283fd5b893567ffffffffffffffff80821115610834578485fd5b6108408d838e016106f4565b909b50995060208c0135915080821115610858578485fd5b6108648d838e016106f4565b909950975060408c013591508082111561087c578485fd5b6108888d838e016106f4565b909750955060608c013591506001600160a01b03821682146108a8578485fd5b90935060808b013590808211156108bd578384fd5b506108ca8c828d0161073d565b915080935050809150509295985092959850929598565b6000602082840312156108f2578081fd5b815180151581146106d4578182fd5b600060208284031215610912578081fd5b5035919050565b6001600160a01b0316815260200190565b6001600160a01b03169052565b6000815180845260208085019450808401835b838110156109665781518752958201959082019060010161094a565b509495945050505050565b60008151808452815b818110156109965760208185018101518683018201520161097a565b818111156109a75782602083870101525b50601f01601f19169290920160200192915050565b61ffff169052565b600060e0820160018060a01b038a168352602060e081850152818a516109ea8185610c89565b9150828c019350845b81811015610a1457610a06838651610919565b9484019492506001016109f3565b50508481036040860152610a28818b610937565b925050508281036060840152610a3e8188610937565b9050610a4d608084018761092a565b82810360a0840152610a5f8186610971565b915050610a6f60c08301846109bc565b98975050505050505050565b6001600160a01b03929092168252602082015260400190565b901515815260200190565b6001600160a01b0391909116815260200190565b60208082526019908201527f4661696c656420746f20776974686472617720616d6f756e7400000000000000604082015260600190565b6020808252601b908201527f536166654d6174683a206164646974696f6e206f766572666c6f770000000000604082015260600190565b6020808252601d908201527f416d6f756e74206d7573742062652067726561746572207468616e2030000000604082015260600190565b6020808252601c908201527f4f6e6c7920746865206f776e6572206d61792063616c6c207468697300000000604082015260600190565b60208082526019908201527f544f444f3a20466c6173686c6f616e204f7065726174696f6e00000000000000604082015260600190565b60208082526033908201527f42616c616e6365206c657373207468616e20616d6f756e7420796f752061726560408201527220747279696e6720746f20776974686472617760681b606082015260800190565b60208082526024908201527f416d6f756e74206973206e6f74207468652073616d652061732076616c7565206040820152631cd95b9d60e21b606082015260800190565b6020808252601290820152710416d6f756e74206c657373207468616e20360741b604082015260600190565b9081526020019056fea2646970667358221220c2a8f1c8d303bde8edefebf17f1d33efc5a42aa77d07da889685dda2e2a5a9e264736f6c634300060c0033",
  "immutableReferences": {
    "365": [
      {
        "length": 32,
        "start": 433
      }
    ],
    "368": [
      {
        "length": 32,
        "start": 1102
      },
      {
        "length": 32,
        "start": 1372
      },
      {
        "length": 32,
        "start": 1544
      }
    ]
  },
  "source": "// SPDX-License-Identifier: MIT\npragma solidity 0.6.12;\npragma experimental ABIEncoderV2;\n\nimport { ILendingPool, ILendingPoolAddressesProvider, IERC20 } from './Interfaces.sol';\nimport { FlashLoanReceiverBase } from './FlashLoanReceiverBase.sol';\n\ncontract FlashApp is FlashLoanReceiverBase {\n  address payable owner;\n  mapping (address => uint256) private accounts;\n\n  // Lending pool address that will provide the loan should be passed on creation\n  constructor(ILendingPoolAddressesProvider provider) FlashLoanReceiverBase(provider) public {\n\n    // Set contract owner\n    owner = payable(msg.sender);\n\n  }\n\n  event Deposit(address indexed from, uint256 amount);\n  event Withdrawal(address indexed from, uint256 amount);\n  event FlashBang(address indexed from);\n\n  // Allows contract to receive ether\n  receive() external payable {}\n\n  // Selfdestruct contract and return funds to owner\n  function flashBang() public {\n\n    // Make sure the one calling this function is the owner of the contract\n    require(msg.sender == owner, \"Only the owner may call this\");\n\n    // Send event notifying of destruction\n    emit FlashBang(msg.sender);\n\n    // Terminate contract and send funds to owner\n    selfdestruct(owner);\n\n  }\n\n  // Allow user to deposit funds to contract\n  // Used for Flash Loan premium (fee) deposit\n  function deposit(uint amount) public payable {\n\n    // Validate amount\n    require(amount > 0, \"Amount less than 0\");\n    require(amount == msg.value, \"Amount is not the same as value sent\");\n\n    // Update accounts with new amount deposited\n    accounts[msg.sender] = amount;\n\n    emit Deposit(msg.sender, amount);\n\n  }\n\n  // Allow user to withdraw funds from contract\n  function withdraw(uint amount) public {\n\n    // Validate amount\n    require(amount > 0, \"Amount must be greater than 0\");\n    require(accounts[msg.sender] >= amount, \"Balance less than amount you are trying to withdraw\");\n\n    // Transfer amount to user\n    require(payable(msg.sender).send(accounts[msg.sender]), \"Failed to withdraw amount\");\n\n    // Update accounts\n    accounts[msg.sender] -= amount;\n\n    emit Withdrawal(msg.sender, amount);\n\n  }\n\n  // Query the current balance of the contract\n  function balance() public view returns (uint) {\n    return address(this).balance;\n  }\n\n  // Query the current balance of an account\n  function balanceFor(address account) public returns (uint) {\n    return accounts[account];\n  }\n\n  // Once flash loan is received, this method is excuted\n  // After flashloan operation is completed, the amount + fee is paid back to the lending pool\n  function executeOperation(address[] calldata assets, uint256[] calldata amounts, uint256[] calldata premiums, address, bytes calldata) external override returns (bool operatorionSuccessful) {\n\n    // TODO\n    revert(\"TODO: Flashloan Operation\");\n\n    // Pay debt back to lending pool (amount owed + fee)\n    for (uint i = 0; i < assets.length; i++) {\n\n      uint amountOwed = amounts[i].add(premiums[i]);\n      IERC20(assets[i]).approve(address(LENDING_POOL), amountOwed);\n\n    }\n\n    return true;\n\n  }\n\n  // Attempt to retrieve a flashloan for requested amount\n  function initiateFlashLoan(address token, uint256 amount, uint256 mode, address sender, address receiver, uint256 fee) public {\n\n    // Make sure user deposited amount to cover fee\n    require(accounts[sender] >= amount * fee);\n\n    address[] memory assets = new address[](1);\n    assets[0] = token;\n\n    uint256[] memory amounts = new uint256[](1);\n    amounts[0] = amount;\n\n    uint256[] memory modes = new uint256[](1);\n    modes[0] = mode;\n\n    bytes memory params = \"\";\n    uint16 referralCode = 0;\n\n    LENDING_POOL.flashLoan(receiver, assets, amounts, modes, sender, params, referralCode);\n\n    // TODO: Emit event\n\n\n  }\n\n}\n",
  "sourcePath": "/Users/traylorboy/Desktop/eidoo/FlashApp/flash-app/contracts/FlashApp.sol",
  "compiler": {
    "name": "solc",
    "version": "0.6.12+commit.27d51765.Emscripten.clang"
  },
  "schemaVersion": "3.4.1",
  "updatedAt": "2021-06-18T16:50:01.291Z",
  "devdoc": {
    "kind": "dev",
    "methods": {},
    "version": 1
  },
  "userdoc": {
    "kind": "user",
    "methods": {},
    "version": 1
  }
}