{
  "contractName": "FlashApp",
  "abi": [
    {
      "inputs": [
        {
          "internalType": "address",
          "name": "_addressProvider",
          "type": "address"
        }
      ],
      "stateMutability": "nonpayable",
      "type": "constructor"
    },
    {
      "anonymous": false,
      "inputs": [
        {
          "indexed": true,
          "internalType": "address",
          "name": "from",
          "type": "address"
        },
        {
          "indexed": false,
          "internalType": "uint256",
          "name": "amount",
          "type": "uint256"
        }
      ],
      "name": "Deposit",
      "type": "event"
    },
    {
      "anonymous": false,
      "inputs": [
        {
          "indexed": true,
          "internalType": "address",
          "name": "from",
          "type": "address"
        },
        {
          "indexed": false,
          "internalType": "uint256",
          "name": "balance",
          "type": "uint256"
        },
        {
          "indexed": false,
          "internalType": "address",
          "name": "reserve",
          "type": "address"
        },
        {
          "indexed": false,
          "internalType": "uint256",
          "name": "amount",
          "type": "uint256"
        },
        {
          "indexed": false,
          "internalType": "uint256",
          "name": "fee",
          "type": "uint256"
        }
      ],
      "name": "LoanCompleted",
      "type": "event"
    },
    {
      "anonymous": false,
      "inputs": [
        {
          "indexed": true,
          "internalType": "address",
          "name": "from",
          "type": "address"
        },
        {
          "indexed": false,
          "internalType": "address",
          "name": "reserve",
          "type": "address"
        },
        {
          "indexed": false,
          "internalType": "uint256",
          "name": "amount",
          "type": "uint256"
        },
        {
          "indexed": false,
          "internalType": "uint256",
          "name": "fee",
          "type": "uint256"
        }
      ],
      "name": "LoanExecuted",
      "type": "event"
    },
    {
      "anonymous": false,
      "inputs": [
        {
          "indexed": true,
          "internalType": "address",
          "name": "from",
          "type": "address"
        },
        {
          "indexed": false,
          "internalType": "address",
          "name": "reserve",
          "type": "address"
        },
        {
          "indexed": false,
          "internalType": "uint256",
          "name": "amount",
          "type": "uint256"
        },
        {
          "indexed": false,
          "internalType": "uint256",
          "name": "fee",
          "type": "uint256"
        }
      ],
      "name": "LoanInitiated",
      "type": "event"
    },
    {
      "anonymous": false,
      "inputs": [
        {
          "indexed": true,
          "internalType": "address",
          "name": "_from",
          "type": "address"
        },
        {
          "indexed": true,
          "internalType": "address",
          "name": "_assetAddress",
          "type": "address"
        },
        {
          "indexed": false,
          "internalType": "uint256",
          "name": "amount",
          "type": "uint256"
        }
      ],
      "name": "LogWithdraw",
      "type": "event"
    },
    {
      "anonymous": false,
      "inputs": [
        {
          "indexed": true,
          "internalType": "address",
          "name": "previousOwner",
          "type": "address"
        },
        {
          "indexed": true,
          "internalType": "address",
          "name": "newOwner",
          "type": "address"
        }
      ],
      "name": "OwnershipTransferred",
      "type": "event"
    },
    {
      "anonymous": false,
      "inputs": [
        {
          "indexed": true,
          "internalType": "address",
          "name": "from",
          "type": "address"
        },
        {
          "indexed": false,
          "internalType": "uint256",
          "name": "amount",
          "type": "uint256"
        }
      ],
      "name": "Withdrawal",
      "type": "event"
    },
    {
      "inputs": [],
      "name": "addressesProvider",
      "outputs": [
        {
          "internalType": "contract ILendingPoolAddressesProvider",
          "name": "",
          "type": "address"
        }
      ],
      "stateMutability": "view",
      "type": "function"
    },
    {
      "inputs": [],
      "name": "owner",
      "outputs": [
        {
          "internalType": "address",
          "name": "",
          "type": "address"
        }
      ],
      "stateMutability": "view",
      "type": "function"
    },
    {
      "inputs": [],
      "name": "renounceOwnership",
      "outputs": [],
      "stateMutability": "nonpayable",
      "type": "function"
    },
    {
      "inputs": [
        {
          "internalType": "address",
          "name": "newOwner",
          "type": "address"
        }
      ],
      "name": "transferOwnership",
      "outputs": [],
      "stateMutability": "nonpayable",
      "type": "function"
    },
    {
      "stateMutability": "payable",
      "type": "receive"
    },
    {
      "inputs": [
        {
          "internalType": "address",
          "name": "_reserve",
          "type": "address"
        },
        {
          "internalType": "uint256",
          "name": "_amount",
          "type": "uint256"
        },
        {
          "internalType": "uint256",
          "name": "_fee",
          "type": "uint256"
        },
        {
          "internalType": "bytes",
          "name": "_params",
          "type": "bytes"
        }
      ],
      "name": "executeOperation",
      "outputs": [],
      "stateMutability": "nonpayable",
      "type": "function"
    },
    {
      "inputs": [
        {
          "internalType": "address",
          "name": "token",
          "type": "address"
        },
        {
          "internalType": "uint256",
          "name": "amount",
          "type": "uint256"
        }
      ],
      "name": "initiateFlashLoan",
      "outputs": [],
      "stateMutability": "nonpayable",
      "type": "function"
    },
    {
      "inputs": [],
      "name": "deposit",
      "outputs": [],
      "stateMutability": "payable",
      "type": "function"
    },
    {
      "inputs": [],
      "name": "withdraw",
      "outputs": [],
      "stateMutability": "nonpayable",
      "type": "function"
    },
    {
      "inputs": [
        {
          "internalType": "address",
          "name": "_assetAddress",
          "type": "address"
        }
      ],
      "name": "withdraw",
      "outputs": [],
      "stateMutability": "nonpayable",
      "type": "function"
    },
    {
      "inputs": [
        {
          "internalType": "address",
          "name": "account",
          "type": "address"
        }
      ],
      "name": "balanceFor",
      "outputs": [
        {
          "internalType": "uint256",
          "name": "",
          "type": "uint256"
        }
      ],
      "stateMutability": "view",
      "type": "function"
    }
  ],
  "bytecode": "0x608060405234801561001057600080fd5b506040516110c73803806110c78339818101604052602081101561003357600080fd5b50518060006100406100b0565b600080546001600160a01b0319166001600160a01b0383169081178255604051929350917f8be0079c531659141344cd1fd0a4f28419497f9722a3daafe3b4186f6b6457e0908290a350600180546001600160a01b0319166001600160a01b0392909216919091179055506100b4565b3390565b611004806100c36000396000f3fe6080604052600436106100955760003560e01c80638da5cb5b116100595780638da5cb5b1461017e578063c72c4d10146101af578063d0e30db0146101c4578063ee872558146101cc578063f2fde38b146102655761009c565b80633ccfd60b146100a157806351cff8d9146100b8578063556849ea146100eb5780635e2c1b3a14610130578063715018a6146101695761009c565b3661009c57005b600080fd5b3480156100ad57600080fd5b506100b6610298565b005b3480156100c457600080fd5b506100b6600480360360208110156100db57600080fd5b50356001600160a01b0316610366565b3480156100f757600080fd5b5061011e6004803603602081101561010e57600080fd5b50356001600160a01b03166104ef565b60408051918252519081900360200190f35b34801561013c57600080fd5b506100b66004803603604081101561015357600080fd5b506001600160a01b03813516906020013561050a565b34801561017557600080fd5b506100b6610724565b34801561018a57600080fd5b506101936107e2565b604080516001600160a01b039092168252519081900360200190f35b3480156101bb57600080fd5b506101936107f1565b6100b6610800565b3480156101d857600080fd5b506100b6600480360360808110156101ef57600080fd5b6001600160a01b03823516916020810135916040820135919081019060808101606082013564010000000081111561022657600080fd5b82018360208201111561023857600080fd5b8035906020019184600183028401116401000000008311171561025a57600080fd5b50909250905061084b565b34801561027157600080fd5b506100b66004803603602081101561028857600080fd5b50356001600160a01b031661097f565b3360008181526002602052604080822054905181156108fc0292818181858888f1935050505061030f576040805162461bcd60e51b815260206004820152601960248201527f4661696c656420746f20776974686472617720616d6f756e7400000000000000604482015290519081900360640190fd5b3360008181526002602090815260409182902054825190815291517f7fcf532c15f0a6db0bd6d0e038bea71d30d808c7d98cb3bf7268a95bf5081b659281900390910190a233600090815260026020526040812055565b61036e610a93565b6001600160a01b031661037f6107e2565b6001600160a01b0316146103da576040805162461bcd60e51b815260206004820181905260248201527f4f776e61626c653a2063616c6c6572206973206e6f7420746865206f776e6572604482015290519081900360640190fd5b60006001600160a01b038216610423575060405130803191339083156108fc029084906000818181858888f1935050505015801561041c573d6000803e3d6000fd5b50506104ab565b604080516370a0823160e01b815230600482015290516001600160a01b038416916370a08231916024808301926020929190829003018186803b15801561046957600080fd5b505afa15801561047d573d6000803e3d6000fd5b505050506040513d602081101561049357600080fd5b505190506104ab6001600160a01b0383163383610a97565b6040805182815290516001600160a01b0384169133917f9207361cc2a04b9c7a06691df1eb87c6a63957ae88bf01d0d18c81e3d12720999181900360200190a35050565b6001600160a01b031660009081526002602052604090205490565b336000908152600260205260409020546105555760405162461bcd60e51b8152600401808060200182810382526029815260200180610f4e6029913960400191505060405180910390fd5b6040805133602080830191909152825180830382018152828401808552600154630261bf8b60e01b909152935190936000936001600160a01b0390911692630261bf8b92604480840193829003018186803b1580156105b357600080fd5b505afa1580156105c7573d6000803e3d6000fd5b505050506040513d60208110156105dd57600080fd5b5051604051632e7ff4ef60e11b815230600482018181526001600160a01b0388811660248501526044840188905260806064850190815287516084860152875195965090861694635cffe9de948a938a938a939192909160a490910190602085019080838360005b8381101561065d578181015183820152602001610645565b50505050905090810190601f16801561068a5780820380516001836020036101000a031916815260200191505b5095505050505050600060405180830381600087803b1580156106ac57600080fd5b505af11580156106c0573d6000803e3d6000fd5b5050336000818152600260209081526040918290205482516001600160a01b038b1681529182018990528183015290519193507f653d9587f3aeb14fb3b1edbf67df44d58ebc1440456c166348d05610b3a413aa925081900360600190a250505050565b61072c610a93565b6001600160a01b031661073d6107e2565b6001600160a01b031614610798576040805162461bcd60e51b815260206004820181905260248201527f4f776e61626c653a2063616c6c6572206973206e6f7420746865206f776e6572604482015290519081900360640190fd5b600080546040516001600160a01b03909116907f8be0079c531659141344cd1fd0a4f28419497f9722a3daafe3b4186f6b6457e0908390a3600080546001600160a01b0319169055565b6000546001600160a01b031690565b6001546001600160a01b031681565b336000818152600260209081526040918290203490819055825190815291517fe1fffcc4923d04b559f4d29a8bfc6cda04eb5b0d3c460751c2402c5c5cc9109c9281900390910190a2565b6108553086610aee565b8411156108935760405162461bcd60e51b815260040180806020018281038252602e815260200180610f77602e913960400191505060405180910390fd5b6000828260208110156108a557600080fd5b50604080516001600160a01b038981168252602082018990528183018890529151923591909116925082917f7ee2a2558edb5ffaa647243a57718d657af4e782f4977f9c9bc4664d1448a0199181900360600190a28484016109078782610ba8565b6109118286610c26565b6001600160a01b03808316600081815260026020908152604091829020548251908152938b1690840152828101899052606083018890525190917fd91df133039385b6934cb65fa5c65889931434762e8a5945da7359e385019087919081900360800190a250505050505050565b610987610a93565b6001600160a01b03166109986107e2565b6001600160a01b0316146109f3576040805162461bcd60e51b815260206004820181905260248201527f4f776e61626c653a2063616c6c6572206973206e6f7420746865206f776e6572604482015290519081900360640190fd5b6001600160a01b038116610a385760405162461bcd60e51b8152600401808060200182810382526026815260200180610f286026913960400191505060405180910390fd5b600080546040516001600160a01b03808516939216917f8be0079c531659141344cd1fd0a4f28419497f9722a3daafe3b4186f6b6457e091a3600080546001600160a01b0319166001600160a01b0392909216919091179055565b3390565b604080516001600160a01b038416602482015260448082018490528251808303909101815260649091019091526020810180516001600160e01b031663a9059cbb60e01b179052610ae9908490610c4a565b505050565b60006001600160a01b03821673eeeeeeeeeeeeeeeeeeeeeeeeeeeeeeeeeeeeeeee1415610b2657506001600160a01b03821631610ba2565b816001600160a01b03166370a08231846040518263ffffffff1660e01b815260040180826001600160a01b0316815260200191505060206040518083038186803b158015610b7357600080fd5b505afa158015610b87573d6000803e3d6000fd5b505050506040513d6020811015610b9d57600080fd5b505190505b92915050565b6001546040805163076b7fbb60e51b815290516000926001600160a01b03169163ed6ff760916004808301926020929190829003018186803b158015610bed57600080fd5b505afa158015610c01573d6000803e3d6000fd5b505050506040513d6020811015610c1757600080fd5b50519050610ae9818484610e08565b6001600160a01b039190911660009081526002602052604090208054919091039055565b610c5c826001600160a01b0316610eeb565b610cad576040805162461bcd60e51b815260206004820152601f60248201527f5361666545524332303a2063616c6c20746f206e6f6e2d636f6e747261637400604482015290519081900360640190fd5b60006060836001600160a01b0316836040518082805190602001908083835b60208310610ceb5780518252601f199092019160209182019101610ccc565b6001836020036101000a0380198251168184511680821785525050505050509050019150506000604051808303816000865af19150503d8060008114610d4d576040519150601f19603f3d011682016040523d82523d6000602084013e610d52565b606091505b509150915081610da9576040805162461bcd60e51b815260206004820181905260248201527f5361666545524332303a206c6f772d6c6576656c2063616c6c206661696c6564604482015290519081900360640190fd5b805115610e0257808060200190516020811015610dc557600080fd5b5051610e025760405162461bcd60e51b815260040180806020018281038252602a815260200180610fa5602a913960400191505060405180910390fd5b50505050565b6001600160a01b03821673eeeeeeeeeeeeeeeeeeeeeeeeeeeeeeeeeeeeeeee1415610ed7576040516000906001600160a01b0385169083908381818185875af1925050503d8060008114610e78576040519150601f19603f3d011682016040523d82523d6000602084013e610e7d565b606091505b5090915050600181151514610ed1576040805162461bcd60e51b8152602060048201526015602482015274086deead8c8dc4ee840e8e4c2dce6cccae4408aa89605b1b604482015290519081900360640190fd5b50610ae9565b610ae96001600160a01b0383168483610a97565b6000813f7fc5d2460186f7233c927e7db2dcc703c0e500b653ca82273b7bfad8045d85a470818114801590610f1f57508115155b94935050505056fe4f776e61626c653a206e6577206f776e657220697320746865207a65726f2061646472657373506c65617365206465706f736974207468652066656520666f7220746865206c6f616e206669727374496e76616c69642062616c616e63652c207761732074686520666c6173684c6f616e207375636365737366756c3f5361666545524332303a204552433230206f7065726174696f6e20646964206e6f742073756363656564a26469706673582212203a7376f61b6096909040f5642b5850efdc39d1593bbff3b171b1c47c2e4ae2b264736f6c634300060c0033",
  "immutableReferences": {},
  "source": "// SPDX-License-Identifier: MIT\n\n\npragma solidity ^0.6.6;\n\nimport { ILendingPool, ILendingPoolAddressesProvider, IERC20 } from \"./Interfaces.sol\";\nimport { FlashLoanReceiverBase } from \"./FlashLoanReceiverBase.sol\";\n\n/// @title A contract for Aave FlashLoan interaction\n/// @author Marques Traylor\n/// @notice Contract is using Aave v1\n/// @dev User deposits fee, contract performs flash loan, left over balance automatically withdrawn from contract and sent back to user\ncontract FlashApp is FlashLoanReceiverBase {\n\tmapping(address => uint256) private accounts;\n\n\t/// @notice Aave V1 contract addresses may be found here - https://docs.aave.com/developers/v/1.0/deployed-contracts/deployed-contract-instances\n\t/// @dev Pass the address as a parameter to deployer in migrations along with the contract\n\t/// @param _addressProvider Aave V1 LendingPoolAddressProvider\n\tconstructor(address _addressProvider)\n        public\n        FlashLoanReceiverBase(_addressProvider)\n    {\n    }\n\n\t/// Emits when a user deposits the premium associated with the FlashLoan\n\t/// @param from User address that is depositing the premium\n\t/// @param amount Amount that user is depositing\n\tevent Deposit(address indexed from, uint256 amount);\n\n\t/// Emits when user or contract withdraws deposited funds from contract\n\t/// @notice Will not emit if withdraw fails (i.e. accounts[msg.sender] == 0)\n\t/// @param from User address that is withdrawing deposited funds\n\t/// @param amount Amount currently owned by user in contract (can be less if they initiated a flash loan)\n\tevent Withdrawal(address indexed from, uint256 amount);\n\n\t/// Emits when initiateFlashLoan is called and flashLoan has been successfully called on lendingPool\n\t/// @notice Will not emit if required fee is not deposited first\n\t/// @param from User address that initiated the flash loan\n\t/// @param reserve Token address for the asset User wants to loan\n\t/// @param amount Amount of reserve to request for the loan\n\t/// @param fee Premium associated with the loan\n\tevent LoanInitiated(\n        address indexed from,\n        address reserve,\n        uint256 amount,\n        uint256 fee\n    );\n\n\t/// Emits when lendingPool calls our executeOperation override and the loan was successfully received\n\t/// @notice Will not emit if loan was not received\n\t/// @param from User address that initiated the flash loan\n\t/// @param reserve Token address for the asset User wants to loan\n\t/// @param amount Amount of reserve to request for the loan\n\t/// @param fee Premium associated with the loan\n\tevent LoanExecuted(\n        address indexed from,\n        address reserve,\n        uint256 amount,\n        uint256 fee\n    );\n\n\t/// Emits after loan has been received and operation has been completed, the debt has been paid back, and user's account balance has been updated\n\t/// @notice Will not emit if the operation process fails\n\t/// @param from User address that initiated the flash loan\n\t/// @param balance Updated user balance in contract after debt is paid back\n\t/// @param reserve Token address for the asset User wants to loan\n\t/// @param amount Amount of reserve to request for the loan\n\t/// @param fee Premium associated with the loan\n\tevent LoanCompleted(\n        address indexed from,\n        uint256 balance,\n        address reserve,\n        uint256 amount,\n        uint256 fee\n    );\n\n    /**\n\tOnce flash loan is received, this method is excuted and after flashloan operation is completed, the amount + fee is paid back to the lending pool.\n\tThe method currently does nothing with the received loan(s), but emit events on successful loan execution and completion for the reserve being loaned out.\n\tLoan execution happens when the contract successfully recevies the loan.\n\tLoan completion happens when the debt + premium fee is paid back to the lending pool.\n\t*/\n\t/// @notice See Aave V1 documentation at - https://docs.aave.com/developers/v/1.0/tutorials/performing-a-flash-loan\n\tfunction executeOperation(\n        address _reserve,\n        uint256 _amount,\n        uint256 _fee,\n        bytes calldata _params\n    )\n        external\n        override\n    {\n\t\trequire(\n            _amount <= getBalanceInternal(address(this), _reserve),\n            \"Invalid balance, was the flashLoan successful?\"\n        );\n\n\t\t// Retrieve user address\n\t\t(address account) = abi.decode(_params, (address));\n\n\t\t// Loan received\n\t\temit LoanExecuted(account, _reserve, _amount, _fee);\n\n\t\t// Pay debt back to lending pool (amount owed + fee)\n\t\tuint totalDebt = _amount + _fee;\n\t\ttransferFundsBackToPoolInternal(_reserve, totalDebt);\n\n\t\t// Update new user balance\n\t\tupdateAccount(account, _fee);\n\n\t\t// Loan paid back\n\t\temit LoanCompleted(\n            account,\n            accounts[account],\n            _reserve, _amount,\n            _fee\n        );\n\t}\n\n    /// Attempt to retrieve a flashloan for requested amount\n\t/// @notice Uses Aave V1 which only requires 1 asset address to be passed\n\t/// @dev Caller must deposit premium before requesting a FlashLoan\n\t/// @param token Token address for the asset User wants to loan\n\t/// @param amount Amount of tplem to request for the loan\n\tfunction initiateFlashLoan(address token, uint256 amount) public {\n\t\trequire(accounts[msg.sender] > 0, \"Please deposit the fee for the loan first\");\n\n\t\t// Address will be used to update account balance after debt is paid back\n\t\t// during the loan operation\n\t\tbytes memory params = abi.encode(msg.sender);\n\n\t\t// Uses Aave V1 addressProvider\n\t\tILendingPool lendingPool = ILendingPool(addressesProvider.getLendingPool());\n\n\t\t// Request loan for amount of token\n\t\tlendingPool.flashLoan(address(this), token, amount, params);\n\n\t\t// Loan request sent\n\t\temit LoanInitiated(msg.sender, token, amount, accounts[msg.sender]);\n\t}\n\n\t/// @notice Used for Flash Loan premium (fee) deposit\n\t/// @dev Must deposit first before calling initiateFlashLoan\n\tfunction deposit() public payable {\n\t\t// Update accounts with new amount deposited\n\t\taccounts[msg.sender] = msg.value;\n\n\t\temit Deposit(msg.sender, msg.value);\n\t}\n\n\t/// @notice User funds will be less after FlashLoan is completed\n\t/// @dev User balance on contract (accounts[msg.sender]) is updated during the loan operation\n\tfunction withdraw() public {\n\t\trequire(\n            payable(msg.sender).send(accounts[msg.sender]),\n            \"Failed to withdraw amount\"\n        );\n\n        // Sent back funds\n\t\temit Withdrawal(msg.sender, accounts[msg.sender]);\n\n\t\t// Remove account\n\t\tdelete accounts[msg.sender];\n\t}\n\n\t/// Query the current balance of an account\n\t/// @notice Will return 0 if account has not deposited yet\n\t/// @param account User account balance being queried\n\t/// @return uint Current balance account has on contract\n\tfunction balanceFor(address account) public view returns (uint) {\n\t\treturn accounts[account];\n\t}\n\n\t/// Updates user account balance after loan is paid back\n\t/// @notice Will deduct premium paid for the FlashLoan\n\t/// @notice Balance left over must be over 0, else account will not be updated\n\t/// @dev Contract updates account after debt is paid back and emits LoanCompleted containing the new balance\n\t/// @dev If account is not updated then user deposited exact premium amount\n\t/// @param account User address that initiated the FlashLoan\n\t/// @param fee Premium paid for the FlashLoan\n\tfunction updateAccount(address account, uint fee) private {\n\t\tif (accounts[account] - fee >= 0) {\n\t\t\taccounts[account] -= fee;\n\t\t}\n\t}\n}\n",
  "sourcePath": "/Users/traylorboy/Desktop/eidoo/FlashApp/flash-app/contracts/FlashApp.sol",
  "compiler": {
    "name": "solc",
    "version": "0.6.12+commit.27d51765.Emscripten.clang"
  },
  "schemaVersion": "3.4.1",
  "updatedAt": "2021-06-22T03:31:15.164Z",
  "devdoc": {
    "author": "Marques Traylor",
    "details": "User deposits fee, contract performs flash loan, left over balance automatically withdrawn from contract and sent back to user",
    "events": {
      "Deposit(address,uint256)": {
        "params": {
          "amount": "Amount that user is depositing",
          "from": "User address that is depositing the premium"
        }
      },
      "LoanCompleted(address,uint256,address,uint256,uint256)": {
        "params": {
          "amount": "Amount of reserve to request for the loan",
          "balance": "Updated user balance in contract after debt is paid back",
          "fee": "Premium associated with the loan",
          "from": "User address that initiated the flash loan",
          "reserve": "Token address for the asset User wants to loan"
        }
      },
      "LoanExecuted(address,address,uint256,uint256)": {
        "params": {
          "amount": "Amount of reserve to request for the loan",
          "fee": "Premium associated with the loan",
          "from": "User address that initiated the flash loan",
          "reserve": "Token address for the asset User wants to loan"
        }
      },
      "LoanInitiated(address,address,uint256,uint256)": {
        "params": {
          "amount": "Amount of reserve to request for the loan",
          "fee": "Premium associated with the loan",
          "from": "User address that initiated the flash loan",
          "reserve": "Token address for the asset User wants to loan"
        }
      },
      "Withdrawal(address,uint256)": {
        "params": {
          "amount": "Amount currently owned by user in contract (can be less if they initiated a flash loan)",
          "from": "User address that is withdrawing deposited funds"
        }
      }
    },
    "kind": "dev",
    "methods": {
      "balanceFor(address)": {
        "params": {
          "account": "User account balance being queried"
        },
        "returns": {
          "_0": "uint Current balance account has on contract"
        }
      },
      "constructor": {
        "details": "Pass the address as a parameter to deployer in migrations along with the contract",
        "params": {
          "_addressProvider": "Aave V1 LendingPoolAddressProvider"
        }
      },
      "deposit()": {
        "details": "Must deposit first before calling initiateFlashLoan"
      },
      "initiateFlashLoan(address,uint256)": {
        "details": "Caller must deposit premium before requesting a FlashLoan",
        "params": {
          "amount": "Amount of tplem to request for the loan",
          "token": "Token address for the asset User wants to loan"
        }
      },
      "owner()": {
        "details": "Returns the address of the current owner."
      },
      "renounceOwnership()": {
        "details": "Leaves the contract without owner. It will not be possible to call `onlyOwner` functions anymore. Can only be called by the current owner. NOTE: Renouncing ownership will leave the contract without an owner, thereby removing any functionality that is only available to the owner."
      },
      "transferOwnership(address)": {
        "details": "Transfers ownership of the contract to a new account (`newOwner`). Can only be called by the current owner."
      },
      "withdraw()": {
        "details": "User balance on contract (accounts[msg.sender]) is updated during the loan operation"
      },
      "withdraw(address)": {
        "details": "Withdraw asset.",
        "params": {
          "_assetAddress": "Asset to be withdrawn."
        }
      }
    },
    "title": "A contract for Aave FlashLoan interaction",
    "version": 1
  },
  "userdoc": {
    "events": {
      "Deposit(address,uint256)": {
        "notice": "Emits when a user deposits the premium associated with the FlashLoan"
      },
      "LoanCompleted(address,uint256,address,uint256,uint256)": {
        "notice": "Emits after loan has been received and operation has been completed, the debt has been paid back, and user's account balance has been updatedWill not emit if the operation process fails"
      },
      "LoanExecuted(address,address,uint256,uint256)": {
        "notice": "Emits when lendingPool calls our executeOperation override and the loan was successfully receivedWill not emit if loan was not received"
      },
      "LoanInitiated(address,address,uint256,uint256)": {
        "notice": "Emits when initiateFlashLoan is called and flashLoan has been successfully called on lendingPoolWill not emit if required fee is not deposited first"
      },
      "Withdrawal(address,uint256)": {
        "notice": "Emits when user or contract withdraws deposited funds from contractWill not emit if withdraw fails (i.e. accounts[msg.sender] == 0)"
      }
    },
    "kind": "user",
    "methods": {
      "balanceFor(address)": {
        "notice": "Query the current balance of an accountWill return 0 if account has not deposited yet"
      },
      "constructor": "Aave V1 contract addresses may be found here - https://docs.aave.com/developers/v/1.0/deployed-contracts/deployed-contract-instances",
      "deposit()": {
        "notice": "Used for Flash Loan premium (fee) deposit"
      },
      "executeOperation(address,uint256,uint256,bytes)": {
        "notice": "See Aave V1 documentation at - https://docs.aave.com/developers/v/1.0/tutorials/performing-a-flash-loan"
      },
      "initiateFlashLoan(address,uint256)": {
        "notice": "Attempt to retrieve a flashloan for requested amountUses Aave V1 which only requires 1 asset address to be passed"
      },
      "withdraw()": {
        "notice": "User funds will be less after FlashLoan is completed"
      }
    },
    "notice": "Contract is using Aave v1",
    "version": 1
  }
}