{
  "contractName": "FlashApp",
  "abi": [
    {
      "inputs": [
        {
          "internalType": "contract ILendingPoolAddressesProvider",
          "name": "provider",
          "type": "address"
        }
      ],
      "stateMutability": "nonpayable",
      "type": "constructor"
    },
    {
      "anonymous": false,
      "inputs": [
        {
          "indexed": true,
          "internalType": "address",
          "name": "from",
          "type": "address"
        },
        {
          "indexed": false,
          "internalType": "uint256",
          "name": "amount",
          "type": "uint256"
        }
      ],
      "name": "Deposit",
      "type": "event"
    },
    {
      "inputs": [],
      "name": "ADDRESSES_PROVIDER",
      "outputs": [
        {
          "internalType": "contract ILendingPoolAddressesProvider",
          "name": "",
          "type": "address"
        }
      ],
      "stateMutability": "view",
      "type": "function",
      "constant": true
    },
    {
      "inputs": [],
      "name": "LENDING_POOL",
      "outputs": [
        {
          "internalType": "contract ILendingPool",
          "name": "",
          "type": "address"
        }
      ],
      "stateMutability": "view",
      "type": "function",
      "constant": true
    },
    {
      "stateMutability": "payable",
      "type": "receive",
      "payable": true
    },
    {
      "inputs": [],
      "name": "flashBang",
      "outputs": [],
      "stateMutability": "nonpayable",
      "type": "function"
    },
    {
      "inputs": [
        {
          "internalType": "uint256",
          "name": "amount",
          "type": "uint256"
        }
      ],
      "name": "deposit",
      "outputs": [],
      "stateMutability": "payable",
      "type": "function",
      "payable": true
    },
    {
      "inputs": [
        {
          "internalType": "uint256",
          "name": "amount",
          "type": "uint256"
        }
      ],
      "name": "withdraw",
      "outputs": [],
      "stateMutability": "nonpayable",
      "type": "function"
    },
    {
      "inputs": [
        {
          "internalType": "address[]",
          "name": "assets",
          "type": "address[]"
        },
        {
          "internalType": "uint256[]",
          "name": "amounts",
          "type": "uint256[]"
        },
        {
          "internalType": "uint256[]",
          "name": "premiums",
          "type": "uint256[]"
        },
        {
          "internalType": "address",
          "name": "",
          "type": "address"
        },
        {
          "internalType": "bytes",
          "name": "",
          "type": "bytes"
        }
      ],
      "name": "executeOperation",
      "outputs": [
        {
          "internalType": "bool",
          "name": "operatorionSuccessful",
          "type": "bool"
        }
      ],
      "stateMutability": "nonpayable",
      "type": "function"
    },
    {
      "inputs": [
        {
          "internalType": "address",
          "name": "token",
          "type": "address"
        },
        {
          "internalType": "uint256",
          "name": "amount",
          "type": "uint256"
        },
        {
          "internalType": "uint256",
          "name": "mode",
          "type": "uint256"
        },
        {
          "internalType": "address",
          "name": "sender",
          "type": "address"
        },
        {
          "internalType": "address",
          "name": "receiver",
          "type": "address"
        },
        {
          "internalType": "uint256",
          "name": "fee",
          "type": "uint256"
        }
      ],
      "name": "initiateFlashLoan",
      "outputs": [],
      "stateMutability": "nonpayable",
      "type": "function"
    }
  ],
  "bytecode": "0x60c06040523480156200001157600080fd5b50604051620016d4380380620016d48339818101604052810190620000379190620001c9565b808073ffffffffffffffffffffffffffffffffffffffff1660808173ffffffffffffffffffffffffffffffffffffffff1660601b815250508073ffffffffffffffffffffffffffffffffffffffff16630261bf8b6040518163ffffffff1660e01b815260040160206040518083038186803b158015620000b657600080fd5b505afa158015620000cb573d6000803e3d6000fd5b505050506040513d601f19601f82011682018060405250810190620000f191906200019d565b73ffffffffffffffffffffffffffffffffffffffff1660a08173ffffffffffffffffffffffffffffffffffffffff1660601b8152505050336000806101000a81548173ffffffffffffffffffffffffffffffffffffffff021916908373ffffffffffffffffffffffffffffffffffffffff1602179055505062000271565b60008151905062000180816200023d565b92915050565b600081519050620001978162000257565b92915050565b600060208284031215620001b057600080fd5b6000620001c0848285016200016f565b91505092915050565b600060208284031215620001dc57600080fd5b6000620001ec8482850162000186565b91505092915050565b600062000202826200021d565b9050919050565b60006200021682620001f5565b9050919050565b600073ffffffffffffffffffffffffffffffffffffffff82169050919050565b6200024881620001f5565b81146200025457600080fd5b50565b620002628162000209565b81146200026e57600080fd5b50565b60805160601c60a05160601c61142f620002a5600039806105db528061073e52806107f052508061019a525061142f6000f3fe6080604052600436106100745760003560e01c80635c2340461161004e5780635c234046146100eb578063920f5c8414610114578063b4dcfc7714610151578063b6b55f251461017c5761007b565b80630542975c146100805780632e1a7d4d146100ab5780635309f771146100d45761007b565b3661007b57005b600080fd5b34801561008c57600080fd5b50610095610198565b6040516100a29190611102565b60405180910390f35b3480156100b757600080fd5b506100d260048036038101906100cd9190610c61565b6101bc565b005b3480156100e057600080fd5b506100e9610384565b005b3480156100f757600080fd5b50610112600480360381019061010d9190610ac7565b610415565b005b34801561012057600080fd5b5061013b60048036038101906101369190610b50565b61067d565b60405161014891906110e7565b60405180910390f35b34801561015d57600080fd5b506101666107ee565b604051610173919061111d565b60405180910390f35b61019660048036038101906101919190610c61565b610812565b005b7f000000000000000000000000000000000000000000000000000000000000000081565b600081116101ff576040517f08c379a00000000000000000000000000000000000000000000000000000000081526004016101f690611178565b60405180910390fd5b80600160003373ffffffffffffffffffffffffffffffffffffffff1673ffffffffffffffffffffffffffffffffffffffff168152602001908152602001600020541015610281576040517f08c379a0000000000000000000000000000000000000000000000000000000008152600401610278906111b8565b60405180910390fd5b3373ffffffffffffffffffffffffffffffffffffffff166108fc600160003373ffffffffffffffffffffffffffffffffffffffff1673ffffffffffffffffffffffffffffffffffffffff168152602001908152602001600020549081150290604051600060405180830381858888f19350505050610334576040517f08c379a000000000000000000000000000000000000000000000000000000000815260040161032b90611138565b60405180910390fd5b80600160003373ffffffffffffffffffffffffffffffffffffffff1673ffffffffffffffffffffffffffffffffffffffff1681526020019081526020016000206000828254039250508190555050565b60008054906101000a900473ffffffffffffffffffffffffffffffffffffffff1673ffffffffffffffffffffffffffffffffffffffff163373ffffffffffffffffffffffffffffffffffffffff16146103dc57600080fd5b60008054906101000a900473ffffffffffffffffffffffffffffffffffffffff1673ffffffffffffffffffffffffffffffffffffffff16ff5b808502600160008573ffffffffffffffffffffffffffffffffffffffff1673ffffffffffffffffffffffffffffffffffffffff16815260200190815260200160002054101561046357600080fd5b6060600167ffffffffffffffff8111801561047d57600080fd5b506040519080825280602002602001820160405280156104ac5781602001602082028036833780820191505090505b50905086816000815181106104bd57fe5b602002602001019073ffffffffffffffffffffffffffffffffffffffff16908173ffffffffffffffffffffffffffffffffffffffff16815250506060600167ffffffffffffffff8111801561051157600080fd5b506040519080825280602002602001820160405280156105405781602001602082028036833780820191505090505b509050868160008151811061055157fe5b6020026020010181815250506060600167ffffffffffffffff8111801561057757600080fd5b506040519080825280602002602001820160405280156105a65781602001602082028036833780820191505090505b50905086816000815181106105b757fe5b602002602001018181525050606060405180602001604052806000815250905060007f000000000000000000000000000000000000000000000000000000000000000073ffffffffffffffffffffffffffffffffffffffff1663ab9c4b5d888787878d88886040518863ffffffff1660e01b815260040161063e9796959493929190611033565b600060405180830381600087803b15801561065857600080fd5b505af115801561066c573d6000803e3d6000fd5b505050505050505050505050505050565b60006040517f08c379a00000000000000000000000000000000000000000000000000000000081526004016106b190611198565b60405180910390fd5b8a8a90508110156107dc5760006106fe8888848181106106d657fe5b905060200201358b8b858181106106e957fe5b9050602002013561092c90919063ffffffff16565b90508b8b8381811061070c57fe5b90506020020160208101906107219190610a9e565b73ffffffffffffffffffffffffffffffffffffffff1663095ea7b37f0000000000000000000000000000000000000000000000000000000000000000836040518363ffffffff1660e01b815260040161077b9291906110be565b602060405180830381600087803b15801561079557600080fd5b505af11580156107a9573d6000803e3d6000fd5b505050506040513d601f19601f820116820180604052508101906107cd9190610c38565b505080806001019150506106ba565b50600190509998505050505050505050565b7f000000000000000000000000000000000000000000000000000000000000000081565b60008111610855576040517f08c379a000000000000000000000000000000000000000000000000000000000815260040161084c906111f8565b60405180910390fd5b348114610897576040517f08c379a000000000000000000000000000000000000000000000000000000000815260040161088e906111d8565b60405180910390fd5b80600160003373ffffffffffffffffffffffffffffffffffffffff1673ffffffffffffffffffffffffffffffffffffffff168152602001908152602001600020819055503373ffffffffffffffffffffffffffffffffffffffff167fe1fffcc4923d04b559f4d29a8bfc6cda04eb5b0d3c460751c2402c5c5cc9109c826040516109219190611218565b60405180910390a250565b600080828401905083811015610977576040517f08c379a000000000000000000000000000000000000000000000000000000000815260040161096e90611158565b60405180910390fd5b8091505092915050565b600081359050610990816113b4565b92915050565b60008083601f8401126109a857600080fd5b8235905067ffffffffffffffff8111156109c157600080fd5b6020830191508360208202830111156109d957600080fd5b9250929050565b60008083601f8401126109f257600080fd5b8235905067ffffffffffffffff811115610a0b57600080fd5b602083019150836020820283011115610a2357600080fd5b9250929050565b600081519050610a39816113cb565b92915050565b60008083601f840112610a5157600080fd5b8235905067ffffffffffffffff811115610a6a57600080fd5b602083019150836001820283011115610a8257600080fd5b9250929050565b600081359050610a98816113e2565b92915050565b600060208284031215610ab057600080fd5b6000610abe84828501610981565b91505092915050565b60008060008060008060c08789031215610ae057600080fd5b6000610aee89828a01610981565b9650506020610aff89828a01610a89565b9550506040610b1089828a01610a89565b9450506060610b2189828a01610981565b9350506080610b3289828a01610981565b92505060a0610b4389828a01610a89565b9150509295509295509295565b600080600080600080600080600060a08a8c031215610b6e57600080fd5b60008a013567ffffffffffffffff811115610b8857600080fd5b610b948c828d01610996565b995099505060208a013567ffffffffffffffff811115610bb357600080fd5b610bbf8c828d016109e0565b975097505060408a013567ffffffffffffffff811115610bde57600080fd5b610bea8c828d016109e0565b95509550506060610bfd8c828d01610981565b93505060808a013567ffffffffffffffff811115610c1a57600080fd5b610c268c828d01610a3f565b92509250509295985092959850929598565b600060208284031215610c4a57600080fd5b6000610c5884828501610a2a565b91505092915050565b600060208284031215610c7357600080fd5b6000610c8184828501610a89565b91505092915050565b6000610c968383610cba565b60208301905092915050565b6000610cae8383611015565b60208301905092915050565b610cc3816112d2565b82525050565b610cd2816112d2565b82525050565b6000610ce382611253565b610ced818561128e565b9350610cf883611233565b8060005b83811015610d29578151610d108882610c8a565b9750610d1b83611274565b925050600181019050610cfc565b5085935050505092915050565b6000610d418261125e565b610d4b818561129f565b9350610d5683611243565b8060005b83811015610d87578151610d6e8882610ca2565b9750610d7983611281565b925050600181019050610d5a565b5085935050505092915050565b610d9d816112e4565b82525050565b6000610dae82611269565b610db881856112b0565b9350610dc8818560208601611370565b610dd1816113a3565b840191505092915050565b610de581611328565b82525050565b610df48161134c565b82525050565b6000610e076019836112c1565b91507f4661696c656420746f20776974686472617720616d6f756e74000000000000006000830152602082019050919050565b6000610e47601b836112c1565b91507f536166654d6174683a206164646974696f6e206f766572666c6f7700000000006000830152602082019050919050565b6000610e87601d836112c1565b91507f416d6f756e74206d7573742062652067726561746572207468616e20300000006000830152602082019050919050565b6000610ec76019836112c1565b91507f544f444f3a20466c6173686c6f616e204f7065726174696f6e000000000000006000830152602082019050919050565b6000610f076033836112c1565b91507f42616c616e6365206c657373207468616e20616d6f756e7420796f752061726560008301527f20747279696e6720746f207769746864726177000000000000000000000000006020830152604082019050919050565b6000610f6d6024836112c1565b91507f416d6f756e74206973206e6f74207468652073616d652061732076616c75652060008301527f73656e74000000000000000000000000000000000000000000000000000000006020830152604082019050919050565b6000610fd36012836112c1565b91507f416d6f756e74206c657373207468616e203000000000000000000000000000006000830152602082019050919050565b61100f816112f0565b82525050565b61101e8161131e565b82525050565b61102d8161131e565b82525050565b600060e082019050611048600083018a610cc9565b818103602083015261105a8189610cd8565b9050818103604083015261106e8188610d36565b905081810360608301526110828187610d36565b90506110916080830186610cc9565b81810360a08301526110a38185610da3565b90506110b260c0830184611006565b98975050505050505050565b60006040820190506110d36000830185610cc9565b6110e06020830184611024565b9392505050565b60006020820190506110fc6000830184610d94565b92915050565b60006020820190506111176000830184610ddc565b92915050565b60006020820190506111326000830184610deb565b92915050565b6000602082019050818103600083015261115181610dfa565b9050919050565b6000602082019050818103600083015261117181610e3a565b9050919050565b6000602082019050818103600083015261119181610e7a565b9050919050565b600060208201905081810360008301526111b181610eba565b9050919050565b600060208201905081810360008301526111d181610efa565b9050919050565b600060208201905081810360008301526111f181610f60565b9050919050565b6000602082019050818103600083015261121181610fc6565b9050919050565b600060208201905061122d6000830184611024565b92915050565b6000819050602082019050919050565b6000819050602082019050919050565b600081519050919050565b600081519050919050565b600081519050919050565b6000602082019050919050565b6000602082019050919050565b600082825260208201905092915050565b600082825260208201905092915050565b600082825260208201905092915050565b600082825260208201905092915050565b60006112dd826112fe565b9050919050565b60008115159050919050565b600061ffff82169050919050565b600073ffffffffffffffffffffffffffffffffffffffff82169050919050565b6000819050919050565b60006113338261133a565b9050919050565b6000611345826112fe565b9050919050565b60006113578261135e565b9050919050565b6000611369826112fe565b9050919050565b60005b8381101561138e578082015181840152602081019050611373565b8381111561139d576000848401525b50505050565b6000601f19601f8301169050919050565b6113bd816112d2565b81146113c857600080fd5b50565b6113d4816112e4565b81146113df57600080fd5b50565b6113eb8161131e565b81146113f657600080fd5b5056fea26469706673582212202f114ac62bb7931b74a14461cdb96aca4e8250abe7a13214db029faf05b5ea5864736f6c634300060c0033",
  "immutableReferences": {
    "319": [
      {
        "length": 32,
        "start": 410
      }
    ],
    "322": [
      {
        "length": 32,
        "start": 1499
      },
      {
        "length": 32,
        "start": 1854
      },
      {
        "length": 32,
        "start": 2032
      }
    ]
  },
  "source": "// SPDX-License-Identifier: MIT\npragma solidity 0.6.12;\npragma experimental ABIEncoderV2;\n\nimport { ILendingPool, ILendingPoolAddressesProvider, IERC20 } from './Interfaces.sol';\nimport { FlashLoanReceiverBase } from './FlashLoanReceiverBase.sol';\n\ncontract FlashApp is FlashLoanReceiverBase {\n  address payable owner;\n  mapping (address => uint256) private accounts;\n\n  // Lending pool address that will provide the loan should be passed on creation\n  constructor(ILendingPoolAddressesProvider provider) FlashLoanReceiverBase(provider) public {\n\n    // Set contract owner\n    owner = payable(msg.sender);\n\n  }\n\n  // TODO: Finish the rest of events\n  event Deposit(address indexed from, uint256 amount);\n\n  // Allows contract to receive ether\n  receive() external payable {}\n\n  // Selfdestruct contract and return funds to owner\n  function flashBang() public {\n\n    // Only owner can call this function\n    require(msg.sender == owner);\n\n    // Terminate contract, send owner funds\n    // used to deploy\n    selfdestruct(owner);\n\n    // TODO: Emit event\n  }\n\n  // Allow user to deposit funds to contract\n  // Used for Flash Loan premium (fee) deposit\n  function deposit(uint256 amount) public payable {\n\n    // Validate amount\n    require(amount > 0, \"Amount less than 0\");\n    require(amount == msg.value, \"Amount is not the same as value sent\");\n\n    // Update accounts with new amount deposited\n    accounts[msg.sender] = amount;\n\n    emit Deposit(msg.sender, amount);\n\n  }\n\n  // Allow user to withdraw funds from contract\n  function withdraw(uint256 amount) public {\n\n    // Validate amount\n    require(amount > 0, \"Amount must be greater than 0\");\n    require(accounts[msg.sender] >= amount, \"Balance less than amount you are trying to withdraw\");\n\n    // Transfer amount to user\n    require(payable(msg.sender).send(accounts[msg.sender]), \"Failed to withdraw amount\");\n\n    // Update accounts\n    accounts[msg.sender] -= amount;\n\n    // TODO: Emit event\n\n\n  }\n\n  // Once flash loan is received, this method is excuted\n  // After flashloan operation is completed, the amount + fee is paid back to the lending pool\n  function executeOperation(address[] calldata assets, uint256[] calldata amounts, uint256[] calldata premiums, address, bytes calldata) external override returns (bool operatorionSuccessful) {\n\n    // TODO\n    revert(\"TODO: Flashloan Operation\");\n\n    // Pay debt back to lending pool (amount owed + fee)\n    for (uint i = 0; i < assets.length; i++) {\n\n      uint amountOwed = amounts[i].add(premiums[i]);\n      IERC20(assets[i]).approve(address(LENDING_POOL), amountOwed);\n\n    }\n\n    return true;\n\n  }\n\n  // Attempt to retrieve a flashloan for requested amount\n  function initiateFlashLoan(address token, uint256 amount, uint256 mode, address sender, address receiver, uint256 fee) public {\n\n    // Make sure user deposited amount to cover fee\n    require(accounts[sender] >= amount * fee);\n\n    address[] memory assets = new address[](1);\n    assets[0] = token;\n\n    uint256[] memory amounts = new uint256[](1);\n    amounts[0] = amount;\n\n    uint256[] memory modes = new uint256[](1);\n    modes[0] = mode;\n\n    bytes memory params = \"\";\n    uint16 referralCode = 0;\n\n    LENDING_POOL.flashLoan(receiver, assets, amounts, modes, sender, params, referralCode);\n\n    // TODO: Emit event\n\n\n  }\n\n}\n",
  "sourcePath": "/Users/traylorboy/Desktop/eidoo/FlashApp/flash-app/contracts/FlashApp.sol",
  "compiler": {
    "name": "solc",
    "version": "0.6.12+commit.27d51765.Emscripten.clang"
  },
  "schemaVersion": "3.4.1",
  "updatedAt": "2021-06-17T22:54:51.085Z",
  "networkType": "ethereum",
  "devdoc": {
    "kind": "dev",
    "methods": {},
    "version": 1
  },
  "userdoc": {
    "kind": "user",
    "methods": {},
    "version": 1
  }
}