{
  "contractName": "FlashAppV2",
  "abi": [
    {
      "inputs": [
        {
          "internalType": "contract ILendingPoolAddressesProvider",
          "name": "provider",
          "type": "address"
        }
      ],
      "stateMutability": "nonpayable",
      "type": "constructor"
    },
    {
      "anonymous": false,
      "inputs": [
        {
          "indexed": false,
          "internalType": "address",
          "name": "initiator",
          "type": "address"
        },
        {
          "indexed": false,
          "internalType": "address",
          "name": "reserve",
          "type": "address"
        },
        {
          "indexed": false,
          "internalType": "uint256",
          "name": "amount",
          "type": "uint256"
        },
        {
          "indexed": false,
          "internalType": "uint256",
          "name": "fee",
          "type": "uint256"
        }
      ],
      "name": "LoanComplete",
      "type": "event"
    },
    {
      "anonymous": false,
      "inputs": [
        {
          "indexed": false,
          "internalType": "address",
          "name": "initiator",
          "type": "address"
        },
        {
          "indexed": false,
          "internalType": "address",
          "name": "token",
          "type": "address"
        },
        {
          "indexed": false,
          "internalType": "uint256",
          "name": "amount",
          "type": "uint256"
        }
      ],
      "name": "LoanInitiated",
      "type": "event"
    },
    {
      "inputs": [],
      "name": "ADDRESSES_PROVIDER",
      "outputs": [
        {
          "internalType": "contract ILendingPoolAddressesProvider",
          "name": "",
          "type": "address"
        }
      ],
      "stateMutability": "view",
      "type": "function"
    },
    {
      "inputs": [],
      "name": "LENDING_POOL",
      "outputs": [
        {
          "internalType": "contract ILendingPool",
          "name": "",
          "type": "address"
        }
      ],
      "stateMutability": "view",
      "type": "function"
    },
    {
      "inputs": [
        {
          "internalType": "address[]",
          "name": "assets",
          "type": "address[]"
        },
        {
          "internalType": "uint256[]",
          "name": "amounts",
          "type": "uint256[]"
        },
        {
          "internalType": "uint256[]",
          "name": "premiums",
          "type": "uint256[]"
        },
        {
          "internalType": "address",
          "name": "initiator",
          "type": "address"
        },
        {
          "internalType": "bytes",
          "name": "",
          "type": "bytes"
        }
      ],
      "name": "executeOperation",
      "outputs": [
        {
          "internalType": "bool",
          "name": "",
          "type": "bool"
        }
      ],
      "stateMutability": "nonpayable",
      "type": "function"
    },
    {
      "inputs": [
        {
          "internalType": "address",
          "name": "token",
          "type": "address"
        },
        {
          "internalType": "uint256",
          "name": "amount",
          "type": "uint256"
        }
      ],
      "name": "requestLoanFor",
      "outputs": [],
      "stateMutability": "nonpayable",
      "type": "function"
    }
  ],
  "bytecode": "0x60c060405234801561001057600080fd5b50604051610b66380380610b668339818101604052602081101561003357600080fd5b50516001600160601b0319606082901b1660805260408051630261bf8b60e01b8152905182916001600160a01b03831691630261bf8b91600480820192602092909190829003018186803b15801561008a57600080fd5b505afa15801561009e573d6000803e3d6000fd5b505050506040513d60208110156100b457600080fd5b505160601b6001600160601b03191660a052506040516100d390610116565b604051809103906000f0801580156100ef573d6000803e3d6000fd5b50600080546001600160a01b0319166001600160a01b039290921691909117905550610123565b61022c8061093a83390190565b60805160601c60a05160601c6107e46101566000398061033552806105dc528061072b52508061022c52506107e46000f3fe608060405234801561001057600080fd5b506004361061004c5760003560e01c80630542975c146100515780631957729a14610075578063920f5c84146100a3578063b4dcfc7714610222575b600080fd5b61005961022a565b604080516001600160a01b039092168252519081900360200190f35b6100a16004803603604081101561008b57600080fd5b506001600160a01b03813516906020013561024e565b005b61020e600480360360a08110156100b957600080fd5b810190602081018135600160201b8111156100d357600080fd5b8201836020820111156100e557600080fd5b803590602001918460208302840111600160201b8311171561010657600080fd5b919390929091602081019035600160201b81111561012357600080fd5b82018360208201111561013557600080fd5b803590602001918460208302840111600160201b8311171561015657600080fd5b919390929091602081019035600160201b81111561017357600080fd5b82018360208201111561018557600080fd5b803590602001918460208302840111600160201b831117156101a657600080fd5b919390926001600160a01b0383351692604081019060200135600160201b8111156101d057600080fd5b8201836020820111156101e257600080fd5b803590602001918460018302840111600160201b8311171561020357600080fd5b509092509050610569565b604080519115158252519081900360200190f35b610059610729565b7f000000000000000000000000000000000000000000000000000000000000000081565b6040805160018082528183019092523091339160609160208083019080368337505060408051600180825281830190925292935060609291506020808301908036833750506040805160018082528183019092529293506060929150602080830190803683370190505090506060604051806020016040528060008152509050600088856000815181106102de57fe5b60200260200101906001600160a01b031690816001600160a01b031681525050878460008151811061030c57fe5b60200260200101818152505060008360008151811061032757fe5b6020026020010181815250507f00000000000000000000000000000000000000000000000000000000000000006001600160a01b031663ab9c4b5d888787878b88886040518863ffffffff1660e01b815260040180886001600160a01b03168152602001806020018060200180602001876001600160a01b03168152602001806020018661ffff16815260200185810385528b818151815260200191508051906020019060200280838360005b838110156103ec5781810151838201526020016103d4565b5050505090500185810384528a818151815260200191508051906020019060200280838360005b8381101561042b578181015183820152602001610413565b50505050905001858103835289818151815260200191508051906020019060200280838360005b8381101561046a578181015183820152602001610452565b50505050905001858103825287818151815260200191508051906020019080838360005b838110156104a657818101518382015260200161048e565b50505050905090810190601f1680156104d35780820380516001836020036101000a031916815260200191505b509b505050505050505050505050600060405180830381600087803b1580156104fb57600080fd5b505af115801561050f573d6000803e3d6000fd5b5050604080516001600160a01b03808b1682528d1660208201528082018c905290517f2a901508efd0db3eb130890ab203df0388e6c96f64af4af66cfbc713cbfc74009350908190036060019150a1505050505050505050565b6000805b898110156107185760006105ae88888481811061058657fe5b905060200201358b8b8581811061059957fe5b9050602002013561074d90919063ffffffff16565b90508b8b838181106105bc57fe5b905060200201356001600160a01b03166001600160a01b031663095ea7b37f0000000000000000000000000000000000000000000000000000000000000000836040518363ffffffff1660e01b815260040180836001600160a01b0316815260200182815260200192505050602060405180830381600087803b15801561064257600080fd5b505af1158015610656573d6000803e3d6000fd5b505050506040513d602081101561066c57600080fd5b507f6c157e603ce6e468a9091c6e58926b7173eccf3be09e8c4ef65c49bfbb0c2dcd9050868d8d8581811061069d57fe5b905060200201356001600160a01b03168c8c868181106106b957fe5b905060200201358b8b878181106106cc57fe5b9050602002013560405180856001600160a01b03168152602001846001600160a01b0316815260200183815260200182815260200194505050505060405180910390a15060010161056d565b5060019a9950505050505050505050565b7f000000000000000000000000000000000000000000000000000000000000000081565b6000828201838110156107a7576040805162461bcd60e51b815260206004820152601b60248201527f536166654d6174683a206164646974696f6e206f766572666c6f770000000000604482015290519081900360640190fd5b939250505056fea264697066735822122052e5e89f4c876aedd73c2c8687c7c5c93fab5ee625308714d98b4f74eb0a66e964736f6c634300060c003360c06040527fe0fba4fc209b4948668006b2be61711b7f465bae0000000000000000000000006080527fd0a1e359811322d97991e03f863a0c30c2cf029c00000000000000000000000060a05234801561005857600080fd5b50600080546001600160a01b03191673a61ca04df33b72b235a8a28cfb535bb7a5271b7017905560805160601c60a05160601c61018a6100a2600039508060a7525061018a6000f3fe6080604052600436106100225760003560e01c8063a3908e1b1461002e57610029565b3661002957005b600080fd5b61004b6004803603602081101561004457600080fd5b503561004d565b005b34811461008b5760405162461bcd60e51b815260040180806020018281038252602f815260200180610126602f913960400191505060405180910390fd5b600080546040805163474cf53d60e01b81526001600160a01b037f0000000000000000000000000000000000000000000000000000000000000000811660048301523360248301819052604483018690529251929493169263474cf53d923492606480820193929182900301818588803b15801561010857600080fd5b505af115801561011c573d6000803e3d6000fd5b5050505050505056fe416d6f756e7420636f6e76657274696e6720697320646966666572656e74207468616e20616d6f756e742073656e74a2646970667358221220f701034199bac0d1871f68667c52b974d835565afcf11dd91a48e680f7c8c9d764736f6c634300060c0033",
  "immutableReferences": {
    "248": [
      {
        "length": 32,
        "start": 556
      }
    ],
    "250": [
      {
        "length": 32,
        "start": 821
      },
      {
        "length": 32,
        "start": 1500
      },
      {
        "length": 32,
        "start": 1835
      }
    ]
  },
  "source": "// SPDX-License-Identifier: MIT\n\n\npragma solidity 0.6.12;\n\nimport { FlashLoanReceiverBase } from \"./FlashLoanReceiverBase.sol\";\nimport { WETHConverter } from \"./WETHConverter.sol\";\nimport { SafeMath } from \"./Libraries.sol\";\nimport {\n    ILendingPool,\n    ILendingPoolAddressesProvider,\n    IERC20,\n    IWETHGateway\n  } from \"./Interfaces.sol\";\n\ncontract FlashAppV2 is FlashLoanReceiverBase {\n  using SafeMath for uint256;\n\n  WETHConverter gateway;\n\n  constructor(ILendingPoolAddressesProvider provider)\n    public\n    FlashLoanReceiverBase(provider)\n    {\n      gateway = new WETHConverter();\n    }\n\n  event LoanInitiated(\n    address initiator,\n    address token,\n    uint amount\n  );\n\n  event LoanComplete(\n    address initiator,\n    address reserve,\n    uint amount,\n    uint fee\n  );\n\n  function executeOperation(\n    address[] calldata assets,\n    uint256[] calldata amounts,\n    uint256[] calldata premiums,\n    address initiator,\n    bytes calldata\n  )\n    external\n    override\n    returns (bool)\n  {\n    // Contract has funds\n    // It will now pay back debt for all assets loaned\n    // and emit LoanComplete event for each asset\n    for (uint i = 0; i < assets.length; i++) {\n      uint owing = amounts[i].add(premiums[i]);\n      IERC20(assets[i]).approve(address(LENDING_POOL), owing);\n      emit LoanComplete(initiator, assets[i], amounts[i], premiums[i]);\n    }\n\n    return true;\n  }\n\n  function requestLoanFor(address token, uint amount) public {\n    address receiver = payable(address(this));\n    address onBehalfOf = payable(msg.sender);\n\n    address[] memory assets = new address[](1);\n    uint256[] memory amounts = new uint256[](1);\n    uint256[] memory modes = new uint256[](1);\n    bytes memory params = \"\";\n    uint16 referralCode = 0;\n\n    assets[0] = token;\n    amounts[0] = amount;\n    modes[0] = 0;\n\n    LENDING_POOL.flashLoan(\n      receiver,\n      assets,\n      amounts,\n      modes,\n      onBehalfOf,\n      params,\n      referralCode\n    );\n\n    emit LoanInitiated(onBehalfOf, token, amount);\n  }\n}\n",
  "sourcePath": "/Users/traylorboy/Desktop/eidoo/FlashApp/flash-app/contracts/FlashAppV2.sol",
  "compiler": {
    "name": "solc",
    "version": "0.6.12+commit.27d51765.Emscripten.clang"
  },
  "schemaVersion": "3.4.1",
  "updatedAt": "2021-06-24T18:36:53.268Z",
  "devdoc": {
    "kind": "dev",
    "methods": {},
    "version": 1
  },
  "userdoc": {
    "kind": "user",
    "methods": {},
    "version": 1
  }
}