{
  "contractName": "FlashApp",
  "abi": [
    {
      "inputs": [
        {
          "internalType": "address",
          "name": "_addressProvider",
          "type": "address"
        }
      ],
      "stateMutability": "nonpayable",
      "type": "constructor"
    },
    {
      "anonymous": false,
      "inputs": [
        {
          "indexed": false,
          "internalType": "bool",
          "name": "successful",
          "type": "bool"
        }
      ],
      "name": "LoanCompleted",
      "type": "event"
    },
    {
      "anonymous": false,
      "inputs": [
        {
          "indexed": false,
          "internalType": "address",
          "name": "reserve",
          "type": "address"
        },
        {
          "indexed": false,
          "internalType": "uint256",
          "name": "amount",
          "type": "uint256"
        },
        {
          "indexed": false,
          "internalType": "uint256",
          "name": "fee",
          "type": "uint256"
        }
      ],
      "name": "LoanExecuted",
      "type": "event"
    },
    {
      "anonymous": false,
      "inputs": [
        {
          "indexed": true,
          "internalType": "address",
          "name": "_from",
          "type": "address"
        },
        {
          "indexed": true,
          "internalType": "address",
          "name": "_assetAddress",
          "type": "address"
        },
        {
          "indexed": false,
          "internalType": "uint256",
          "name": "amount",
          "type": "uint256"
        }
      ],
      "name": "LogWithdraw",
      "type": "event"
    },
    {
      "anonymous": false,
      "inputs": [
        {
          "indexed": true,
          "internalType": "address",
          "name": "previousOwner",
          "type": "address"
        },
        {
          "indexed": true,
          "internalType": "address",
          "name": "newOwner",
          "type": "address"
        }
      ],
      "name": "OwnershipTransferred",
      "type": "event"
    },
    {
      "inputs": [],
      "name": "addressesProvider",
      "outputs": [
        {
          "internalType": "contract ILendingPoolAddressesProvider",
          "name": "",
          "type": "address"
        }
      ],
      "stateMutability": "view",
      "type": "function",
      "constant": true
    },
    {
      "inputs": [],
      "name": "owner",
      "outputs": [
        {
          "internalType": "address",
          "name": "",
          "type": "address"
        }
      ],
      "stateMutability": "view",
      "type": "function",
      "constant": true
    },
    {
      "inputs": [],
      "name": "renounceOwnership",
      "outputs": [],
      "stateMutability": "nonpayable",
      "type": "function"
    },
    {
      "inputs": [
        {
          "internalType": "address",
          "name": "newOwner",
          "type": "address"
        }
      ],
      "name": "transferOwnership",
      "outputs": [],
      "stateMutability": "nonpayable",
      "type": "function"
    },
    {
      "inputs": [
        {
          "internalType": "address",
          "name": "_assetAddress",
          "type": "address"
        }
      ],
      "name": "withdraw",
      "outputs": [],
      "stateMutability": "nonpayable",
      "type": "function"
    },
    {
      "stateMutability": "payable",
      "type": "receive",
      "payable": true
    },
    {
      "inputs": [
        {
          "internalType": "address",
          "name": "_reserve",
          "type": "address"
        },
        {
          "internalType": "uint256",
          "name": "_amount",
          "type": "uint256"
        },
        {
          "internalType": "uint256",
          "name": "_fee",
          "type": "uint256"
        },
        {
          "internalType": "bytes",
          "name": "",
          "type": "bytes"
        }
      ],
      "name": "executeOperation",
      "outputs": [],
      "stateMutability": "nonpayable",
      "type": "function"
    },
    {
      "inputs": [
        {
          "internalType": "address",
          "name": "token",
          "type": "address"
        },
        {
          "internalType": "uint256",
          "name": "amount",
          "type": "uint256"
        }
      ],
      "name": "initiateFlashLoan",
      "outputs": [],
      "stateMutability": "nonpayable",
      "type": "function"
    },
    {
      "inputs": [
        {
          "internalType": "address",
          "name": "receiver",
          "type": "address"
        }
      ],
      "name": "emptyTheBank",
      "outputs": [],
      "stateMutability": "nonpayable",
      "type": "function"
    }
  ],
  "bytecode": "0x608060405234801561001057600080fd5b50604051610f6f380380610f6f8339818101604052602081101561003357600080fd5b50518060006100496001600160e01b036100b916565b600080546001600160a01b0319166001600160a01b0383169081178255604051929350917f8be0079c531659141344cd1fd0a4f28419497f9722a3daafe3b4186f6b6457e0908290a350600180546001600160a01b0319166001600160a01b0392909216919091179055506100bd565b3390565b610ea3806100cc6000396000f3fe60806040526004361061007f5760003560e01c8063c18140e31161004e578063c18140e31461013f578063c72c4d1014610172578063ee87255814610187578063f2fde38b1461022057610086565b806351cff8d91461008b5780635e2c1b3a146100c0578063715018a6146100f95780638da5cb5b1461010e57610086565b3661008657005b600080fd5b34801561009757600080fd5b506100be600480360360208110156100ae57600080fd5b50356001600160a01b0316610253565b005b3480156100cc57600080fd5b506100be600480360360408110156100e357600080fd5b506001600160a01b0381351690602001356103d0565b34801561010557600080fd5b506100be61059b565b34801561011a57600080fd5b50610123610647565b604080516001600160a01b039092168252519081900360200190f35b34801561014b57600080fd5b506100be6004803603602081101561016257600080fd5b50356001600160a01b0316610656565b34801561017e57600080fd5b506101236106f8565b34801561019357600080fd5b506100be600480360360808110156101aa57600080fd5b6001600160a01b0382351691602081013591604082013591908101906080810160608201356401000000008111156101e157600080fd5b8201836020820111156101f357600080fd5b8035906020019184600183028401116401000000008311171561021557600080fd5b509092509050610707565b34801561022c57600080fd5b506100be6004803603602081101561024357600080fd5b50356001600160a01b03166107f2565b61025b6108f4565b6001600160a01b031661026c610647565b6001600160a01b0316146102b5576040805162461bcd60e51b81526020600482018190526024820152600080516020610e24833981519152604482015290519081900360640190fd5b60006001600160a01b0382166102fe575060405130803191339083156108fc029084906000818181858888f193505050501580156102f7573d6000803e3d6000fd5b505061038c565b604080516370a0823160e01b815230600482015290516001600160a01b038416916370a08231916024808301926020929190829003018186803b15801561034457600080fd5b505afa158015610358573d6000803e3d6000fd5b505050506040513d602081101561036e57600080fd5b5051905061038c6001600160a01b038316338363ffffffff6108f816565b6040805182815290516001600160a01b0384169133917f9207361cc2a04b9c7a06691df1eb87c6a63957ae88bf01d0d18c81e3d12720999181900360200190a35050565b6103d86108f4565b6001600160a01b03166103e9610647565b6001600160a01b031614610432576040805162461bcd60e51b81526020600482018190526024820152600080516020610e24833981519152604482015290519081900360640190fd5b604080516020808201835260008083526001548451630261bf8b60e01b81529451939491936001600160a01b0390911692630261bf8b9260048082019391829003018186803b15801561048457600080fd5b505afa158015610498573d6000803e3d6000fd5b505050506040513d60208110156104ae57600080fd5b5051604051632e7ff4ef60e11b815230600482018181526001600160a01b0388811660248501526044840188905260806064850190815287516084860152875195965090861694635cffe9de948a938a938a939192909160a490910190602085019080838360005b8381101561052e578181015183820152602001610516565b50505050905090810190601f16801561055b5780820380516001836020036101000a031916815260200191505b5095505050505050600060405180830381600087803b15801561057d57600080fd5b505af1158015610591573d6000803e3d6000fd5b5050505050505050565b6105a36108f4565b6001600160a01b03166105b4610647565b6001600160a01b0316146105fd576040805162461bcd60e51b81526020600482018190526024820152600080516020610e24833981519152604482015290519081900360640190fd5b600080546040516001600160a01b03909116907f8be0079c531659141344cd1fd0a4f28419497f9722a3daafe3b4186f6b6457e0908390a3600080546001600160a01b0319169055565b6000546001600160a01b031690565b61065e6108f4565b6001600160a01b031661066f610647565b6001600160a01b0316146106b8576040805162461bcd60e51b81526020600482018190526024820152600080516020610e24833981519152604482015290519081900360640190fd5b47156106f5576040516001600160a01b038216904780156108fc02916000818181858888f193505050501580156106f3573d6000803e3d6000fd5b505b50565b6001546001600160a01b031681565b610711308661094f565b84111561074f5760405162461bcd60e51b8152600401808060200182810382526029815260200180610dfb6029913960400191505060405180910390fd5b604080516001600160a01b03871681526020810186905280820185905290517fab3cb3156aeb9c3e5e2778b906f657149081b6fb1e1fcc638898a4bf9031fb229181900360600190a160006107aa858563ffffffff610a1216565b90506107b68682610a73565b604080516001815290517fb80b01b3679bc43abcf5626c7f9dc4161a387ec9e2dc05deaa899d41147230009181900360200190a1505050505050565b6107fa6108f4565b6001600160a01b031661080b610647565b6001600160a01b031614610854576040805162461bcd60e51b81526020600482018190526024820152600080516020610e24833981519152604482015290519081900360640190fd5b6001600160a01b0381166108995760405162461bcd60e51b8152600401808060200182810382526026815260200180610dd56026913960400191505060405180910390fd5b600080546040516001600160a01b03808516939216917f8be0079c531659141344cd1fd0a4f28419497f9722a3daafe3b4186f6b6457e091a3600080546001600160a01b0319166001600160a01b0392909216919091179055565b3390565b604080516001600160a01b038416602482015260448082018490528251808303909101815260649091019091526020810180516001600160e01b031663a9059cbb60e01b17905261094a908490610af1565b505050565b60006001600160a01b03821673eeeeeeeeeeeeeeeeeeeeeeeeeeeeeeeeeeeeeeee141561098757506001600160a01b03821631610a0c565b816001600160a01b03166370a08231846040518263ffffffff1660e01b815260040180826001600160a01b03166001600160a01b0316815260200191505060206040518083038186803b1580156109dd57600080fd5b505afa1580156109f1573d6000803e3d6000fd5b505050506040513d6020811015610a0757600080fd5b505190505b92915050565b600082820183811015610a6c576040805162461bcd60e51b815260206004820152601b60248201527f536166654d6174683a206164646974696f6e206f766572666c6f770000000000604482015290519081900360640190fd5b9392505050565b6001546040805163076b7fbb60e51b815290516000926001600160a01b03169163ed6ff760916004808301926020929190829003018186803b158015610ab857600080fd5b505afa158015610acc573d6000803e3d6000fd5b505050506040513d6020811015610ae257600080fd5b5051905061094a818484610caf565b610b03826001600160a01b0316610d98565b610b54576040805162461bcd60e51b815260206004820152601f60248201527f5361666545524332303a2063616c6c20746f206e6f6e2d636f6e747261637400604482015290519081900360640190fd5b60006060836001600160a01b0316836040518082805190602001908083835b60208310610b925780518252601f199092019160209182019101610b73565b6001836020036101000a0380198251168184511680821785525050505050509050019150506000604051808303816000865af19150503d8060008114610bf4576040519150601f19603f3d011682016040523d82523d6000602084013e610bf9565b606091505b509150915081610c50576040805162461bcd60e51b815260206004820181905260248201527f5361666545524332303a206c6f772d6c6576656c2063616c6c206661696c6564604482015290519081900360640190fd5b805115610ca957808060200190516020811015610c6c57600080fd5b5051610ca95760405162461bcd60e51b815260040180806020018281038252602a815260200180610e44602a913960400191505060405180910390fd5b50505050565b6001600160a01b03821673eeeeeeeeeeeeeeeeeeeeeeeeeeeeeeeeeeeeeeee1415610d7e576040516000906001600160a01b0385169083908381818185875af1925050503d8060008114610d1f576040519150601f19603f3d011682016040523d82523d6000602084013e610d24565b606091505b5090915050600181151514610d78576040805162461bcd60e51b8152602060048201526015602482015274086deead8c8dc4ee840e8e4c2dce6cccae4408aa89605b1b604482015290519081900360640190fd5b5061094a565b61094a6001600160a01b038316848363ffffffff6108f816565b6000813f7fc5d2460186f7233c927e7db2dcc703c0e500b653ca82273b7bfad8045d85a470818114801590610dcc57508115155b94935050505056fe4f776e61626c653a206e6577206f776e657220697320746865207a65726f2061646472657373496e76616c69642062616c616e63652c2077617320746865206c6f616e207375636365737366756c3f4f776e61626c653a2063616c6c6572206973206e6f7420746865206f776e65725361666545524332303a204552433230206f7065726174696f6e20646964206e6f742073756363656564a2646970667358221220948839aafa63772b776bd4060b06f7a84b485ca1a3cd559ca29150fc983b8c0564736f6c63430006060033",
  "immutableReferences": {},
  "source": "// SPDX-License-Identifier: MIT\n\n\npragma solidity 0.6.6;\n\nimport { ILendingPool, ILendingPoolAddressesProvider, IERC20 } from \"./Interfaces.sol\";\nimport { FlashLoanReceiverBase } from \"./FlashLoanReceiverBase.sol\";\n\n/// @title A contract that receives an Aave FlashLoan, emits an event, then \tpays back the loan\n/// @author Marques Traylor\n/// @notice Contract is using Aave v1\ncontract FlashApp is FlashLoanReceiverBase {\n\t/// @notice Aave V1 contract addresses may be found here - https://docs.aave.com/developers/v/1.0/deployed-contracts/deployed-contract-instances\n\t/// @dev Pass the address as a parameter to deployer in migrations along with the contract\n\t/// @param _addressProvider Aave V1 LendingPoolAddressProvider\n\tconstructor(address _addressProvider)\n        public\n        FlashLoanReceiverBase(_addressProvider)\n    {\n    }\n\n\t/// Emits when lendingPool calls our executeOperation override and the loan was successfully received\n\t/// @notice Will not emit if loan was not received\n\t/// @param reserve Token address for the asset User wants to loan\n\t/// @param amount Amount of reserve to request for the loan\n\t/// @param fee Premium associated with the loan\n\tevent LoanExecuted(\n        address reserve,\n        uint256 amount,\n        uint256 fee\n    );\n\n\t/// Emits after loan has been received and operation has been completed, and the debt has been paid back\n\t/// @notice Will not emit if the operation process fails\n\t/// @param successful Debt paid back and loan completed successfully\n\tevent LoanCompleted(bool successful);\n\n  /**\n\tOnce flash loan is received, this method is excuted and after flashloan operation is completed, the amount + fee is paid back to the lending pool.\n\tThe method currently does nothing with the received loan(s), but emit events on successful loan execution and completion for the reserve being loaned out.\n\tLoan execution happens when the contract successfully recevies the loan.\n\tLoan completion happens when the debt + premium fee is paid back to the lending pool.\n\t*/\n\t/// @notice See Aave V1 documentation at - https://docs.aave.com/developers/v/1.0/tutorials/performing-a-flash-loan\n\tfunction executeOperation(\n        address _reserve,\n        uint256 _amount,\n        uint256 _fee,\n        bytes calldata\n    )\n        external\n        override\n    {\n\t\trequire(\n            _amount <= getBalanceInternal(address(this), _reserve),\n            \"Invalid balance, was the loan successful?\"\n        );\n\n\t\t// Loan received successfully\n\t\temit LoanExecuted(_reserve, _amount, _fee);\n\n\t\t// Pay debt back to lending pool (amount owed + fee)\n\t\tuint totalDebt = _amount.add(_fee);\n\t\ttransferFundsBackToPoolInternal(_reserve, totalDebt);\n\n\t\t// Loan paid back successfully\n\t\temit LoanCompleted(true);\n\t}\n\n  /// Attempt to retrieve a flashloan for requested amount\n\t/// @notice Uses Aave V1 which only requires 1 asset address to be passed\n\t/// @dev Caller must deposit premium before requesting a FlashLoan, they may send it along with this method call\n\t/// @param token Token address for the asset User wants to loan\n\t/// @param amount Amount of token to request for the loan\n\tfunction initiateFlashLoan(address token, uint256 amount) public onlyOwner {\n\t\tbytes memory params = \"\";\n\n\t\t// Uses Aave V1 addressProvider\n\t\tILendingPool lendingPool = ILendingPool(addressesProvider.getLendingPool());\n\n\t\t// Request loan for amount of token\n\t\tlendingPool.flashLoan(address(this), token, amount, params);\n\t}\n\n  /// Withdraw funds to receiver\n\tfunction emptyTheBank(address receiver) public onlyOwner {\n\t\tif (address(this).balance > 0) {\n\t\t\tpayable(receiver).transfer(address(this).balance);\n\t\t}\n\t}\n}\n",
  "sourcePath": "/Users/traylorboy/Desktop/eidoo/FlashApp/flash-app/contracts/FlashApp.sol",
  "compiler": {
    "name": "solc",
    "version": "0.6.6+commit.6c089d02.Emscripten.clang"
  },
  "schemaVersion": "3.4.1",
  "updatedAt": "2021-06-24T13:32:47.955Z",
  "networkType": "ethereum",
  "devdoc": {
    "author": "Marques Traylor",
    "methods": {
      "constructor": {
        "details": "Pass the address as a parameter to deployer in migrations along with the contract",
        "params": {
          "_addressProvider": "Aave V1 LendingPoolAddressProvider"
        }
      },
      "initiateFlashLoan(address,uint256)": {
        "details": "Caller must deposit premium before requesting a FlashLoan, they may send it along with this method call",
        "params": {
          "amount": "Amount of token to request for the loan",
          "token": "Token address for the asset User wants to loan"
        }
      },
      "owner()": {
        "details": "Returns the address of the current owner."
      },
      "renounceOwnership()": {
        "details": "Leaves the contract without owner. It will not be possible to call `onlyOwner` functions anymore. Can only be called by the current owner.     * NOTE: Renouncing ownership will leave the contract without an owner, thereby removing any functionality that is only available to the owner."
      },
      "transferOwnership(address)": {
        "details": "Transfers ownership of the contract to a new account (`newOwner`). Can only be called by the current owner."
      },
      "withdraw(address)": {
        "details": "Withdraw asset.",
        "params": {
          "_assetAddress": "Asset to be withdrawn."
        }
      }
    },
    "title": "A contract that receives an Aave FlashLoan, emits an event, then \tpays back the loan"
  },
  "userdoc": {
    "methods": {
      "constructor": "Aave V1 contract addresses may be found here - https://docs.aave.com/developers/v/1.0/deployed-contracts/deployed-contract-instances",
      "emptyTheBank(address)": {
        "notice": "Withdraw funds to receiver"
      },
      "executeOperation(address,uint256,uint256,bytes)": {
        "notice": "See Aave V1 documentation at - https://docs.aave.com/developers/v/1.0/tutorials/performing-a-flash-loan"
      },
      "initiateFlashLoan(address,uint256)": {
        "notice": "Attempt to retrieve a flashloan for requested amountUses Aave V1 which only requires 1 asset address to be passed"
      }
    },
    "notice": "Contract is using Aave v1"
  }
}