{
  "contractName": "FlashApp",
  "abi": [
    {
      "inputs": [
        {
          "internalType": "contract ILendingPoolAddressesProvider",
          "name": "provider",
          "type": "address"
        }
      ],
      "stateMutability": "nonpayable",
      "type": "constructor"
    },
    {
      "anonymous": false,
      "inputs": [
        {
          "indexed": true,
          "internalType": "address",
          "name": "from",
          "type": "address"
        },
        {
          "indexed": false,
          "internalType": "uint256",
          "name": "amount",
          "type": "uint256"
        }
      ],
      "name": "Deposit",
      "type": "event"
    },
    {
      "anonymous": false,
      "inputs": [
        {
          "indexed": true,
          "internalType": "address",
          "name": "from",
          "type": "address"
        }
      ],
      "name": "FlashBang",
      "type": "event"
    },
    {
      "inputs": [],
      "name": "ADDRESSES_PROVIDER",
      "outputs": [
        {
          "internalType": "contract ILendingPoolAddressesProvider",
          "name": "",
          "type": "address"
        }
      ],
      "stateMutability": "view",
      "type": "function"
    },
    {
      "inputs": [],
      "name": "LENDING_POOL",
      "outputs": [
        {
          "internalType": "contract ILendingPool",
          "name": "",
          "type": "address"
        }
      ],
      "stateMutability": "view",
      "type": "function"
    },
    {
      "stateMutability": "payable",
      "type": "receive"
    },
    {
      "inputs": [],
      "name": "flashBang",
      "outputs": [],
      "stateMutability": "nonpayable",
      "type": "function"
    },
    {
      "inputs": [
        {
          "internalType": "uint256",
          "name": "amount",
          "type": "uint256"
        }
      ],
      "name": "deposit",
      "outputs": [],
      "stateMutability": "payable",
      "type": "function"
    },
    {
      "inputs": [
        {
          "internalType": "uint256",
          "name": "amount",
          "type": "uint256"
        }
      ],
      "name": "withdraw",
      "outputs": [],
      "stateMutability": "nonpayable",
      "type": "function"
    },
    {
      "inputs": [],
      "name": "balance",
      "outputs": [
        {
          "internalType": "uint256",
          "name": "",
          "type": "uint256"
        }
      ],
      "stateMutability": "view",
      "type": "function"
    },
    {
      "inputs": [
        {
          "internalType": "address[]",
          "name": "assets",
          "type": "address[]"
        },
        {
          "internalType": "uint256[]",
          "name": "amounts",
          "type": "uint256[]"
        },
        {
          "internalType": "uint256[]",
          "name": "premiums",
          "type": "uint256[]"
        },
        {
          "internalType": "address",
          "name": "",
          "type": "address"
        },
        {
          "internalType": "bytes",
          "name": "",
          "type": "bytes"
        }
      ],
      "name": "executeOperation",
      "outputs": [
        {
          "internalType": "bool",
          "name": "operatorionSuccessful",
          "type": "bool"
        }
      ],
      "stateMutability": "nonpayable",
      "type": "function"
    },
    {
      "inputs": [
        {
          "internalType": "address",
          "name": "token",
          "type": "address"
        },
        {
          "internalType": "uint256",
          "name": "amount",
          "type": "uint256"
        },
        {
          "internalType": "uint256",
          "name": "mode",
          "type": "uint256"
        },
        {
          "internalType": "address",
          "name": "sender",
          "type": "address"
        },
        {
          "internalType": "address",
          "name": "receiver",
          "type": "address"
        },
        {
          "internalType": "uint256",
          "name": "fee",
          "type": "uint256"
        }
      ],
      "name": "initiateFlashLoan",
      "outputs": [],
      "stateMutability": "nonpayable",
      "type": "function"
    }
  ],
  "bytecode": "0x60c060405234801561001057600080fd5b50604051610d14380380610d1483398101604081905261002f916100e9565b80806001600160a01b03166080816001600160a01b031660601b81525050806001600160a01b0316630261bf8b6040518163ffffffff1660e01b815260040160206040518083038186803b15801561008657600080fd5b505afa15801561009a573d6000803e3d6000fd5b505050506040513d601f19601f820116820180604052508101906100be91906100e9565b60601b6001600160601b03191660a052505060008054336001600160a01b0319909116179055610124565b6000602082840312156100fa578081fd5b81516101058161010c565b9392505050565b6001600160a01b038116811461012157600080fd5b50565b60805160601c60a05160601c610bbd6101576000398061036f528061047d52806105295250806101865250610bbd6000f3fe60806040526004361061007f5760003560e01c8063920f5c841161004e578063920f5c841461010d578063b4dcfc771461013a578063b69ef8a81461014f578063b6b55f251461017157610086565b80630542975c1461008b5780632e1a7d4d146100b65780635309f771146100d85780635c234046146100ed57610086565b3661008657005b600080fd5b34801561009757600080fd5b506100a0610184565b6040516100ad91906109cb565b60405180910390f35b3480156100c257600080fd5b506100d66100d136600461082d565b6101a8565b005b3480156100e457600080fd5b506100d661025b565b3480156100f957600080fd5b506100d66101083660046106cb565b61025d565b34801561011957600080fd5b5061012d61012836600461072c565b6103ef565b6040516100ad91906109c0565b34801561014657600080fd5b506100a0610527565b34801561015b57600080fd5b5061016461054b565b6040516100ad9190610b7e565b6100d661017f36600461082d565b61054f565b7f000000000000000000000000000000000000000000000000000000000000000081565b600081116101d15760405162461bcd60e51b81526004016101c890610a4d565b60405180910390fd5b336000908152600160205260409020548111156102005760405162461bcd60e51b81526004016101c890610abb565b3360008181526001602052604080822054905181156108fc0292818181858888f193505050506102425760405162461bcd60e51b81526004016101c8906109df565b3360009081526001602052604090208054919091039055565b565b6001600160a01b038316600090815260016020526040902054858202111561028457600080fd5b6040805160018082528183019092526060916020808301908036833701905050905086816000815181106102b457fe5b6001600160a01b03929092166020928302919091019091015260408051600180825281830190925260609181602001602082028036833701905050905086816000815181106102ff57fe5b6020908102919091010152604080516001808252818301909252606091816020016020820280368337019050509050868160008151811061033c57fe5b6020908102919091018101919091526040805191820181526000808352905163ab9c4b5d60e01b81526001600160a01b037f0000000000000000000000000000000000000000000000000000000000000000169063ab9c4b5d906103b0908a908990899089908f908a908a906004016108f0565b600060405180830381600087803b1580156103ca57600080fd5b505af11580156103de573d6000803e3d6000fd5b505050505050505050505050505050565b600060405162461bcd60e51b81526004016101c890610a84565b8981101561051657600061044a88888481811061042257fe5b905060200201358b8b8581811061043557fe5b905060200201356105db90919063ffffffff16565b90508b8b8381811061045857fe5b905060200201602081019061046d91906106a9565b6001600160a01b031663095ea7b37f0000000000000000000000000000000000000000000000000000000000000000836040518363ffffffff1660e01b81526004016104ba9291906109a7565b602060405180830381600087803b1580156104d457600080fd5b505af11580156104e8573d6000803e3d6000fd5b505050506040513d601f19601f8201168201806040525081019061050c919061080d565b5050600101610409565b5060019a9950505050505050505050565b7f000000000000000000000000000000000000000000000000000000000000000081565b4790565b6000811161056f5760405162461bcd60e51b81526004016101c890610b52565b34811461058e5760405162461bcd60e51b81526004016101c890610b0e565b3360008181526001602052604090819020839055517fe1fffcc4923d04b559f4d29a8bfc6cda04eb5b0d3c460751c2402c5c5cc9109c906105d0908490610b7e565b60405180910390a250565b6000828201838110156106005760405162461bcd60e51b81526004016101c890610a16565b90505b92915050565b80356001600160a01b038116811461060357600080fd5b60008083601f840112610631578182fd5b50813567ffffffffffffffff811115610648578182fd5b602083019150836020808302850101111561066257600080fd5b9250929050565b60008083601f84011261067a578182fd5b50813567ffffffffffffffff811115610691578182fd5b60208301915083602082850101111561066257600080fd5b6000602082840312156106ba578081fd5b6106c48383610609565b9392505050565b60008060008060008060c087890312156106e3578182fd5b6106ed8888610609565b9550602087013594506040870135935061070a8860608901610609565b92506107198860808901610609565b915060a087013590509295509295509295565b600080600080600080600080600060a08a8c031215610749578283fd5b893567ffffffffffffffff80821115610760578485fd5b61076c8d838e01610620565b909b50995060208c0135915080821115610784578485fd5b6107908d838e01610620565b909950975060408c01359150808211156107a8578485fd5b6107b48d838e01610620565b909750955060608c013591506001600160a01b03821682146107d4578485fd5b90935060808b013590808211156107e9578384fd5b506107f68c828d01610669565b915080935050809150509295985092959850929598565b60006020828403121561081e578081fd5b81518015158114610600578182fd5b60006020828403121561083e578081fd5b5035919050565b6001600160a01b0316815260200190565b6001600160a01b03169052565b6000815180845260208085019450808401835b8381101561089257815187529582019590820190600101610876565b509495945050505050565b60008151808452815b818110156108c2576020818501810151868301820152016108a6565b818111156108d35782602083870101525b50601f01601f19169290920160200192915050565b61ffff169052565b600060e0820160018060a01b038a168352602060e081850152818a516109168185610b7e565b9150828c019350845b8181101561094057610932838651610845565b94840194925060010161091f565b50508481036040860152610954818b610863565b92505050828103606084015261096a8188610863565b90506109796080840187610856565b82810360a084015261098b818661089d565b91505061099b60c08301846108e8565b98975050505050505050565b6001600160a01b03929092168252602082015260400190565b901515815260200190565b6001600160a01b0391909116815260200190565b60208082526019908201527f4661696c656420746f20776974686472617720616d6f756e7400000000000000604082015260600190565b6020808252601b908201527f536166654d6174683a206164646974696f6e206f766572666c6f770000000000604082015260600190565b6020808252601d908201527f416d6f756e74206d7573742062652067726561746572207468616e2030000000604082015260600190565b60208082526019908201527f544f444f3a20466c6173686c6f616e204f7065726174696f6e00000000000000604082015260600190565b60208082526033908201527f42616c616e6365206c657373207468616e20616d6f756e7420796f752061726560408201527220747279696e6720746f20776974686472617760681b606082015260800190565b60208082526024908201527f416d6f756e74206973206e6f74207468652073616d652061732076616c7565206040820152631cd95b9d60e21b606082015260800190565b6020808252601290820152710416d6f756e74206c657373207468616e20360741b604082015260600190565b9081526020019056fea264697066735822122059d939fa709604ea1a9455d354e6e26a836a07aa30d8657a3a9798ec97c9296564736f6c634300060c0033",
  "immutableReferences": {
    "324": [
      {
        "length": 32,
        "start": 390
      }
    ],
    "327": [
      {
        "length": 32,
        "start": 879
      },
      {
        "length": 32,
        "start": 1149
      },
      {
        "length": 32,
        "start": 1321
      }
    ]
  },
  "source": "// SPDX-License-Identifier: MIT\npragma solidity 0.6.12;\npragma experimental ABIEncoderV2;\n\nimport { ILendingPool, ILendingPoolAddressesProvider, IERC20 } from './Interfaces.sol';\nimport { FlashLoanReceiverBase } from './FlashLoanReceiverBase.sol';\n\ncontract FlashApp is FlashLoanReceiverBase {\n  address payable owner;\n  mapping (address => uint256) private accounts;\n\n  // Lending pool address that will provide the loan should be passed on creation\n  constructor(ILendingPoolAddressesProvider provider) FlashLoanReceiverBase(provider) public {\n\n    // Set contract owner\n    owner = payable(msg.sender);\n\n  }\n\n  // TODO: Finish the rest of events\n  event Deposit(address indexed from, uint256 amount);\n  event FlashBang(address indexed from);\n\n  // Allows contract to receive ether\n  receive() external payable {}\n\n  // Selfdestruct contract and return funds to owner\n  function flashBang() public {\n  }\n\n  // Allow user to deposit funds to contract\n  // Used for Flash Loan premium (fee) deposit\n  function deposit(uint amount) public payable {\n\n    // Validate amount\n    require(amount > 0, \"Amount less than 0\");\n    require(amount == msg.value, \"Amount is not the same as value sent\");\n\n    // Update accounts with new amount deposited\n    accounts[msg.sender] = amount;\n\n    emit Deposit(msg.sender, amount);\n\n  }\n\n  // Allow user to withdraw funds from contract\n  function withdraw(uint amount) public {\n\n    // Validate amount\n    require(amount > 0, \"Amount must be greater than 0\");\n    require(accounts[msg.sender] >= amount, \"Balance less than amount you are trying to withdraw\");\n\n    // Transfer amount to user\n    require(payable(msg.sender).send(accounts[msg.sender]), \"Failed to withdraw amount\");\n\n    // Update accounts\n    accounts[msg.sender] -= amount;\n\n    // TODO: Emit event\n\n\n  }\n\n  function balance() public view returns (uint) {\n    return address(this).balance;\n  }\n\n  // Once flash loan is received, this method is excuted\n  // After flashloan operation is completed, the amount + fee is paid back to the lending pool\n  function executeOperation(address[] calldata assets, uint256[] calldata amounts, uint256[] calldata premiums, address, bytes calldata) external override returns (bool operatorionSuccessful) {\n\n    // TODO\n    revert(\"TODO: Flashloan Operation\");\n\n    // Pay debt back to lending pool (amount owed + fee)\n    for (uint i = 0; i < assets.length; i++) {\n\n      uint amountOwed = amounts[i].add(premiums[i]);\n      IERC20(assets[i]).approve(address(LENDING_POOL), amountOwed);\n\n    }\n\n    return true;\n\n  }\n\n  // Attempt to retrieve a flashloan for requested amount\n  function initiateFlashLoan(address token, uint256 amount, uint256 mode, address sender, address receiver, uint256 fee) public {\n\n    // Make sure user deposited amount to cover fee\n    require(accounts[sender] >= amount * fee);\n\n    address[] memory assets = new address[](1);\n    assets[0] = token;\n\n    uint256[] memory amounts = new uint256[](1);\n    amounts[0] = amount;\n\n    uint256[] memory modes = new uint256[](1);\n    modes[0] = mode;\n\n    bytes memory params = \"\";\n    uint16 referralCode = 0;\n\n    LENDING_POOL.flashLoan(receiver, assets, amounts, modes, sender, params, referralCode);\n\n    // TODO: Emit event\n\n\n  }\n\n}\n",
  "sourcePath": "/Users/traylorboy/Desktop/eidoo/FlashApp/flash-app/contracts/FlashApp.sol",
  "compiler": {
    "name": "solc",
    "version": "0.6.12+commit.27d51765.Emscripten.clang"
  },
  "schemaVersion": "3.4.1",
  "updatedAt": "2021-06-18T02:54:31.387Z",
  "devdoc": {
    "kind": "dev",
    "methods": {},
    "version": 1
  },
  "userdoc": {
    "kind": "user",
    "methods": {},
    "version": 1
  }
}