{
  "contractName": "FlashAppV2",
  "abi": [
    {
      "inputs": [
        {
          "internalType": "contract ILendingPoolAddressesProvider",
          "name": "provider",
          "type": "address"
        }
      ],
      "stateMutability": "nonpayable",
      "type": "constructor"
    },
    {
      "anonymous": false,
      "inputs": [
        {
          "indexed": false,
          "internalType": "address",
          "name": "initiator",
          "type": "address"
        },
        {
          "indexed": false,
          "internalType": "address",
          "name": "reserve",
          "type": "address"
        },
        {
          "indexed": false,
          "internalType": "uint256",
          "name": "amount",
          "type": "uint256"
        },
        {
          "indexed": false,
          "internalType": "uint256",
          "name": "fee",
          "type": "uint256"
        }
      ],
      "name": "LoanComplete",
      "type": "event"
    },
    {
      "anonymous": false,
      "inputs": [
        {
          "indexed": false,
          "internalType": "address",
          "name": "initiator",
          "type": "address"
        },
        {
          "indexed": false,
          "internalType": "address",
          "name": "token",
          "type": "address"
        },
        {
          "indexed": false,
          "internalType": "uint256",
          "name": "amount",
          "type": "uint256"
        }
      ],
      "name": "LoanInitiated",
      "type": "event"
    },
    {
      "inputs": [],
      "name": "ADDRESSES_PROVIDER",
      "outputs": [
        {
          "internalType": "contract ILendingPoolAddressesProvider",
          "name": "",
          "type": "address"
        }
      ],
      "stateMutability": "view",
      "type": "function",
      "constant": true
    },
    {
      "inputs": [],
      "name": "LENDING_POOL",
      "outputs": [
        {
          "internalType": "contract ILendingPool",
          "name": "",
          "type": "address"
        }
      ],
      "stateMutability": "view",
      "type": "function",
      "constant": true
    },
    {
      "inputs": [
        {
          "internalType": "uint256",
          "name": "amount",
          "type": "uint256"
        }
      ],
      "name": "convert",
      "outputs": [],
      "stateMutability": "payable",
      "type": "function",
      "payable": true
    },
    {
      "inputs": [
        {
          "internalType": "address",
          "name": "onBehalfOf",
          "type": "address"
        }
      ],
      "name": "requestWETHBalance",
      "outputs": [
        {
          "internalType": "uint256",
          "name": "",
          "type": "uint256"
        }
      ],
      "stateMutability": "view",
      "type": "function",
      "constant": true
    },
    {
      "stateMutability": "payable",
      "type": "receive",
      "payable": true
    },
    {
      "inputs": [
        {
          "internalType": "address[]",
          "name": "assets",
          "type": "address[]"
        },
        {
          "internalType": "uint256[]",
          "name": "amounts",
          "type": "uint256[]"
        },
        {
          "internalType": "uint256[]",
          "name": "premiums",
          "type": "uint256[]"
        },
        {
          "internalType": "address",
          "name": "initiator",
          "type": "address"
        },
        {
          "internalType": "bytes",
          "name": "",
          "type": "bytes"
        }
      ],
      "name": "executeOperation",
      "outputs": [
        {
          "internalType": "bool",
          "name": "",
          "type": "bool"
        }
      ],
      "stateMutability": "nonpayable",
      "type": "function"
    },
    {
      "inputs": [
        {
          "internalType": "address",
          "name": "token",
          "type": "address"
        },
        {
          "internalType": "uint256",
          "name": "amount",
          "type": "uint256"
        }
      ],
      "name": "requestLoanFor",
      "outputs": [],
      "stateMutability": "nonpayable",
      "type": "function"
    }
  ],
  "bytecode": "0x6101006040527fe0fba4fc209b4948668006b2be61711b7f465bae00000000000000000000000060c0527fd0a1e359811322d97991e03f863a0c30c2cf029c00000000000000000000000060e05234801561005957600080fd5b50604051610bbb380380610bbb8339818101604052602081101561007c57600080fd5b50516001600160601b0319606082901b1660805260408051630261bf8b60e01b8152905182916001600160a01b03831691630261bf8b91600480820192602092909190829003018186803b1580156100d357600080fd5b505afa1580156100e7573d6000803e3d6000fd5b505050506040513d60208110156100fd57600080fd5b50516001600160601b031960609190911b1660a0525050600080546001600160a01b03191673a61ca04df33b72b235a8a28cfb535bb7a5271b7017905560805160601c60a05160601c60c05160601c60e05160601c610a36610185600039806106175250806108ce5250806103df5280610727528061094e5250806102d65250610a366000f3fe6080604052600436106100595760003560e01c80630542975c146100655780631957729a146100965780637a88eec8146100d1578063920f5c8414610116578063a3908e1b146102a2578063b4dcfc77146102bf57610060565b3661006057005b600080fd5b34801561007157600080fd5b5061007a6102d4565b604080516001600160a01b039092168252519081900360200190f35b3480156100a257600080fd5b506100cf600480360360408110156100b957600080fd5b506001600160a01b0381351690602001356102f8565b005b3480156100dd57600080fd5b50610104600480360360208110156100f457600080fd5b50356001600160a01b0316610613565b60408051918252519081900360200190f35b34801561012257600080fd5b5061028e600480360360a081101561013957600080fd5b810190602081018135600160201b81111561015357600080fd5b82018360208201111561016557600080fd5b803590602001918460208302840111600160201b8311171561018657600080fd5b919390929091602081019035600160201b8111156101a357600080fd5b8201836020820111156101b557600080fd5b803590602001918460208302840111600160201b831117156101d657600080fd5b919390929091602081019035600160201b8111156101f357600080fd5b82018360208201111561020557600080fd5b803590602001918460208302840111600160201b8311171561022657600080fd5b919390926001600160a01b0383351692604081019060200135600160201b81111561025057600080fd5b82018360208201111561026257600080fd5b803590602001918460018302840111600160201b8311171561028357600080fd5b5090925090506106b4565b604080519115158252519081900360200190f35b6100cf600480360360208110156102b857600080fd5b5035610874565b3480156102cb57600080fd5b5061007a61094c565b7f000000000000000000000000000000000000000000000000000000000000000081565b60408051600180825281830190925230913391606091602080830190803683375050604080516001808252818301909252929350606092915060208083019080368337505060408051600180825281830190925292935060609291506020808301908036833701905050905060606040518060200160405280600081525090506000888560008151811061038857fe5b60200260200101906001600160a01b031690816001600160a01b03168152505087846000815181106103b657fe5b6020026020010181815250506000836000815181106103d157fe5b6020026020010181815250507f00000000000000000000000000000000000000000000000000000000000000006001600160a01b031663ab9c4b5d888787878b88886040518863ffffffff1660e01b815260040180886001600160a01b03168152602001806020018060200180602001876001600160a01b03168152602001806020018661ffff16815260200185810385528b818151815260200191508051906020019060200280838360005b8381101561049657818101518382015260200161047e565b5050505090500185810384528a818151815260200191508051906020019060200280838360005b838110156104d55781810151838201526020016104bd565b50505050905001858103835289818151815260200191508051906020019060200280838360005b838110156105145781810151838201526020016104fc565b50505050905001858103825287818151815260200191508051906020019080838360005b83811015610550578181015183820152602001610538565b50505050905090810190601f16801561057d5780820380516001836020036101000a031916815260200191505b509b505050505050505050505050600060405180830381600087803b1580156105a557600080fd5b505af11580156105b9573d6000803e3d6000fd5b5050604080516001600160a01b03808b1682528d1660208201528082018c905290517f2a901508efd0db3eb130890ab203df0388e6c96f64af4af66cfbc713cbfc74009350908190036060019150a1505050505050505050565b60007f00000000000000000000000000000000000000000000000000000000000000006001600160a01b03166370a08231836040518263ffffffff1660e01b815260040180826001600160a01b0316815260200191505060206040518083038186803b15801561068257600080fd5b505afa158015610696573d6000803e3d6000fd5b505050506040513d60208110156106ac57600080fd5b505192915050565b6000805b898110156108635760006106f98888848181106106d157fe5b905060200201358b8b858181106106e457fe5b9050602002013561097090919063ffffffff16565b90508b8b8381811061070757fe5b905060200201356001600160a01b03166001600160a01b031663095ea7b37f0000000000000000000000000000000000000000000000000000000000000000836040518363ffffffff1660e01b815260040180836001600160a01b0316815260200182815260200192505050602060405180830381600087803b15801561078d57600080fd5b505af11580156107a1573d6000803e3d6000fd5b505050506040513d60208110156107b757600080fd5b507f6c157e603ce6e468a9091c6e58926b7173eccf3be09e8c4ef65c49bfbb0c2dcd9050868d8d858181106107e857fe5b905060200201356001600160a01b03168c8c8681811061080457fe5b905060200201358b8b8781811061081757fe5b9050602002013560405180856001600160a01b03168152602001846001600160a01b0316815260200183815260200182815260200194505050505060405180910390a1506001016106b8565b5060019a9950505050505050505050565b3481146108b25760405162461bcd60e51b815260040180806020018281038252602f8152602001806109d2602f913960400191505060405180910390fd5b600080546040805163474cf53d60e01b81526001600160a01b037f0000000000000000000000000000000000000000000000000000000000000000811660048301523360248301819052604483018690529251929493169263474cf53d923492606480820193929182900301818588803b15801561092f57600080fd5b505af1158015610943573d6000803e3d6000fd5b50505050505050565b7f000000000000000000000000000000000000000000000000000000000000000081565b6000828201838110156109ca576040805162461bcd60e51b815260206004820152601b60248201527f536166654d6174683a206164646974696f6e206f766572666c6f770000000000604482015290519081900360640190fd5b939250505056fe416d6f756e7420636f6e76657274696e6720697320646966666572656e74207468616e20616d6f756e742073656e74a2646970667358221220d68dcb2b49152c4823375cd1f5c436c4e421066b10da36b875d648bd388d006c64736f6c634300060c0033",
  "immutableReferences": {
    "242": [
      {
        "length": 32,
        "start": 726
      }
    ],
    "244": [
      {
        "length": 32,
        "start": 991
      },
      {
        "length": 32,
        "start": 1831
      },
      {
        "length": 32,
        "start": 2382
      }
    ],
    "1370": [
      {
        "length": 32,
        "start": 2254
      }
    ],
    "1376": [
      {
        "length": 32,
        "start": 1559
      }
    ]
  },
  "source": "// SPDX-License-Identifier: MIT\n\n\npragma solidity 0.6.12;\n\nimport { FlashLoanReceiverBase } from \"./FlashLoanReceiverBase.sol\";\nimport { WETHConverter } from \"./WETHConverter.sol\";\nimport { SafeMath } from \"./Libraries.sol\";\nimport {\n    ILendingPool,\n    ILendingPoolAddressesProvider,\n    IERC20,\n    IWETHGateway\n  } from \"./Interfaces.sol\";\n\ncontract FlashAppV2 is FlashLoanReceiverBase, WETHConverter {\n  using SafeMath for uint256;\n\n  constructor(ILendingPoolAddressesProvider provider)\n    public\n    FlashLoanReceiverBase(provider)\n    {}\n\n  event LoanInitiated(\n    address initiator,\n    address token,\n    uint amount\n  );\n\n  event LoanComplete(\n    address initiator,\n    address reserve,\n    uint amount,\n    uint fee\n  );\n\n  function executeOperation(\n    address[] calldata assets,\n    uint256[] calldata amounts,\n    uint256[] calldata premiums,\n    address initiator,\n    bytes calldata\n  )\n    external\n    override\n    returns (bool)\n  {\n    // Contract has funds\n    // It will now pay back debt for all assets loaned\n    // and emit LoanComplete event for each asset\n    for (uint i = 0; i < assets.length; i++) {\n      uint owing = amounts[i].add(premiums[i]);\n      IERC20(assets[i]).approve(address(LENDING_POOL), owing);\n      emit LoanComplete(initiator, assets[i], amounts[i], premiums[i]);\n    }\n\n    return true;\n  }\n\n  function requestLoanFor(address token, uint amount) public {\n    address receiver = payable(address(this));\n    address onBehalfOf = payable(msg.sender);\n\n    address[] memory assets = new address[](1);\n    uint256[] memory amounts = new uint256[](1);\n    uint256[] memory modes = new uint256[](1);\n    bytes memory params = \"\";\n    uint16 referralCode = 0;\n\n    assets[0] = token;\n    amounts[0] = amount;\n    modes[0] = 0;\n\n    LENDING_POOL.flashLoan(\n      receiver,\n      assets,\n      amounts,\n      modes,\n      onBehalfOf,\n      params,\n      referralCode\n    );\n\n    emit LoanInitiated(onBehalfOf, token, amount);\n  }\n}\n",
  "sourcePath": "/Users/traylorboy/Desktop/eidoo/FlashApp/flash-app/contracts/FlashAppV2.sol",
  "compiler": {
    "name": "solc",
    "version": "0.6.12+commit.27d51765.Emscripten.clang"
  },
  "schemaVersion": "3.4.1",
  "updatedAt": "2021-06-24T19:07:09.078Z",
  "networkType": "ethereum",
  "devdoc": {
    "kind": "dev",
    "methods": {},
    "version": 1
  },
  "userdoc": {
    "kind": "user",
    "methods": {},
    "version": 1
  }
}