{
  "contractName": "FlashApp",
  "abi": [
    {
      "inputs": [
        {
          "internalType": "address",
          "name": "provider",
          "type": "address"
        }
      ],
      "stateMutability": "nonpayable",
      "type": "constructor"
    },
    {
      "anonymous": false,
      "inputs": [
        {
          "indexed": true,
          "internalType": "address",
          "name": "from",
          "type": "address"
        },
        {
          "indexed": false,
          "internalType": "uint256",
          "name": "amount",
          "type": "uint256"
        }
      ],
      "name": "Deposit",
      "type": "event"
    },
    {
      "anonymous": false,
      "inputs": [
        {
          "indexed": false,
          "internalType": "address",
          "name": "reserve",
          "type": "address"
        },
        {
          "indexed": false,
          "internalType": "uint256",
          "name": "amount",
          "type": "uint256"
        },
        {
          "indexed": false,
          "internalType": "uint256",
          "name": "fee",
          "type": "uint256"
        }
      ],
      "name": "LoanCompleted",
      "type": "event"
    },
    {
      "anonymous": false,
      "inputs": [
        {
          "indexed": true,
          "internalType": "address",
          "name": "from",
          "type": "address"
        },
        {
          "indexed": false,
          "internalType": "address",
          "name": "reserve",
          "type": "address"
        },
        {
          "indexed": false,
          "internalType": "uint256",
          "name": "amount",
          "type": "uint256"
        },
        {
          "indexed": false,
          "internalType": "uint256",
          "name": "fee",
          "type": "uint256"
        }
      ],
      "name": "LoanInitiated",
      "type": "event"
    },
    {
      "anonymous": false,
      "inputs": [
        {
          "indexed": true,
          "internalType": "address",
          "name": "_from",
          "type": "address"
        },
        {
          "indexed": true,
          "internalType": "address",
          "name": "_assetAddress",
          "type": "address"
        },
        {
          "indexed": false,
          "internalType": "uint256",
          "name": "amount",
          "type": "uint256"
        }
      ],
      "name": "LogWithdraw",
      "type": "event"
    },
    {
      "anonymous": false,
      "inputs": [
        {
          "indexed": true,
          "internalType": "address",
          "name": "previousOwner",
          "type": "address"
        },
        {
          "indexed": true,
          "internalType": "address",
          "name": "newOwner",
          "type": "address"
        }
      ],
      "name": "OwnershipTransferred",
      "type": "event"
    },
    {
      "anonymous": false,
      "inputs": [
        {
          "indexed": true,
          "internalType": "address",
          "name": "from",
          "type": "address"
        },
        {
          "indexed": false,
          "internalType": "uint256",
          "name": "amount",
          "type": "uint256"
        }
      ],
      "name": "Withdrawal",
      "type": "event"
    },
    {
      "inputs": [],
      "name": "addressesProvider",
      "outputs": [
        {
          "internalType": "contract ILendingPoolAddressesProvider",
          "name": "",
          "type": "address"
        }
      ],
      "stateMutability": "view",
      "type": "function"
    },
    {
      "inputs": [],
      "name": "owner",
      "outputs": [
        {
          "internalType": "address",
          "name": "",
          "type": "address"
        }
      ],
      "stateMutability": "view",
      "type": "function"
    },
    {
      "inputs": [],
      "name": "renounceOwnership",
      "outputs": [],
      "stateMutability": "nonpayable",
      "type": "function"
    },
    {
      "inputs": [
        {
          "internalType": "address",
          "name": "newOwner",
          "type": "address"
        }
      ],
      "name": "transferOwnership",
      "outputs": [],
      "stateMutability": "nonpayable",
      "type": "function"
    },
    {
      "stateMutability": "payable",
      "type": "receive"
    },
    {
      "inputs": [
        {
          "internalType": "uint256",
          "name": "amount",
          "type": "uint256"
        }
      ],
      "name": "deposit",
      "outputs": [],
      "stateMutability": "payable",
      "type": "function"
    },
    {
      "inputs": [
        {
          "internalType": "uint256",
          "name": "amount",
          "type": "uint256"
        }
      ],
      "name": "withdraw",
      "outputs": [],
      "stateMutability": "nonpayable",
      "type": "function"
    },
    {
      "inputs": [
        {
          "internalType": "address",
          "name": "_assetAddress",
          "type": "address"
        }
      ],
      "name": "withdraw",
      "outputs": [],
      "stateMutability": "nonpayable",
      "type": "function"
    },
    {
      "inputs": [
        {
          "internalType": "address",
          "name": "account",
          "type": "address"
        }
      ],
      "name": "balanceFor",
      "outputs": [
        {
          "internalType": "uint256",
          "name": "",
          "type": "uint256"
        }
      ],
      "stateMutability": "view",
      "type": "function"
    },
    {
      "inputs": [
        {
          "internalType": "address",
          "name": "_reserve",
          "type": "address"
        },
        {
          "internalType": "uint256",
          "name": "_amount",
          "type": "uint256"
        },
        {
          "internalType": "uint256",
          "name": "_fee",
          "type": "uint256"
        },
        {
          "internalType": "bytes",
          "name": "",
          "type": "bytes"
        }
      ],
      "name": "executeOperation",
      "outputs": [],
      "stateMutability": "nonpayable",
      "type": "function"
    },
    {
      "inputs": [
        {
          "internalType": "address",
          "name": "token",
          "type": "address"
        },
        {
          "internalType": "uint256",
          "name": "amount",
          "type": "uint256"
        }
      ],
      "name": "initiateFlashLoan",
      "outputs": [],
      "stateMutability": "nonpayable",
      "type": "function"
    }
  ],
  "bytecode": "0x608060405234801561001057600080fd5b506040516111ab3803806111ab8339818101604052602081101561003357600080fd5b50518060006100406100b0565b600080546001600160a01b0319166001600160a01b0383169081178255604051929350917f8be0079c531659141344cd1fd0a4f28419497f9722a3daafe3b4186f6b6457e0908290a350600180546001600160a01b0319166001600160a01b0392909216919091179055506100b4565b3390565b6110e8806100c36000396000f3fe6080604052600436106100955760003560e01c80638da5cb5b116100595780638da5cb5b14610193578063b6b55f25146101c4578063c72c4d10146101e1578063ee872558146101f6578063f2fde38b1461028f5761009c565b80632e1a7d4d146100a157806351cff8d9146100cd578063556849ea146101005780635e2c1b3a14610145578063715018a61461017e5761009c565b3661009c57005b600080fd5b3480156100ad57600080fd5b506100cb600480360360208110156100c457600080fd5b50356102c2565b005b3480156100d957600080fd5b506100cb600480360360208110156100f057600080fd5b50356001600160a01b031661042a565b34801561010c57600080fd5b506101336004803603602081101561012357600080fd5b50356001600160a01b03166105b3565b60408051918252519081900360200190f35b34801561015157600080fd5b506100cb6004803603604081101561016857600080fd5b506001600160a01b0381351690602001356105ce565b34801561018a57600080fd5b506100cb6107dc565b34801561019f57600080fd5b506101a861089a565b604080516001600160a01b039092168252519081900360200190f35b6100cb600480360360208110156101da57600080fd5b50356108a9565b3480156101ed57600080fd5b506101a861097b565b34801561020257600080fd5b506100cb6004803603608081101561021957600080fd5b6001600160a01b03823516916020810135916040820135919081019060808101606082013564010000000081111561025057600080fd5b82018360208201111561026257600080fd5b8035906020019184600183028401116401000000008311171561028457600080fd5b50909250905061098a565b34801561029b57600080fd5b506100cb600480360360208110156102b257600080fd5b50356001600160a01b0316610a30565b60008111610317576040805162461bcd60e51b815260206004820152601d60248201527f416d6f756e74206d7573742062652067726561746572207468616e2030000000604482015290519081900360640190fd5b336000908152600260205260409020548111156103655760405162461bcd60e51b81526004018080602001828103825260338152602001806110046033913960400191505060405180910390fd5b3360008181526002602052604080822054905181156108fc0292818181858888f193505050506103dc576040805162461bcd60e51b815260206004820152601960248201527f4661696c656420746f20776974686472617720616d6f756e7400000000000000604482015290519081900360640190fd5b3360008181526002602090815260409182902080548590039055815184815291517f7fcf532c15f0a6db0bd6d0e038bea71d30d808c7d98cb3bf7268a95bf5081b659281900390910190a250565b610432610b44565b6001600160a01b031661044361089a565b6001600160a01b03161461049e576040805162461bcd60e51b815260206004820181905260248201527f4f776e61626c653a2063616c6c6572206973206e6f7420746865206f776e6572604482015290519081900360640190fd5b60006001600160a01b0382166104e7575060405130803191339083156108fc029084906000818181858888f193505050501580156104e0573d6000803e3d6000fd5b505061056f565b604080516370a0823160e01b815230600482015290516001600160a01b038416916370a08231916024808301926020929190829003018186803b15801561052d57600080fd5b505afa158015610541573d6000803e3d6000fd5b505050506040513d602081101561055757600080fd5b5051905061056f6001600160a01b0383163383610b48565b6040805182815290516001600160a01b0384169133917f9207361cc2a04b9c7a06691df1eb87c6a63957ae88bf01d0d18c81e3d12720999181900360200190a35050565b6001600160a01b031660009081526002602052604090205490565b336000908152600260205260409020546106195760405162461bcd60e51b8152600401808060200182810382526029815260200180610fdb6029913960400191505060405180910390fd5b604080516020808201835260008083526001548451630261bf8b60e01b81529451939491936001600160a01b0390911692630261bf8b9260048082019391829003018186803b15801561066b57600080fd5b505afa15801561067f573d6000803e3d6000fd5b505050506040513d602081101561069557600080fd5b5051604051632e7ff4ef60e11b815230600482018181526001600160a01b0388811660248501526044840188905260806064850190815287516084860152875195965090861694635cffe9de948a938a938a939192909160a490910190602085019080838360005b838110156107155781810151838201526020016106fd565b50505050905090810190601f1680156107425780820380516001836020036101000a031916815260200191505b5095505050505050600060405180830381600087803b15801561076457600080fd5b505af1158015610778573d6000803e3d6000fd5b5050336000818152600260209081526040918290205482516001600160a01b038b1681529182018990528183015290519193507f653d9587f3aeb14fb3b1edbf67df44d58ebc1440456c166348d05610b3a413aa925081900360600190a250505050565b6107e4610b44565b6001600160a01b03166107f561089a565b6001600160a01b031614610850576040805162461bcd60e51b815260206004820181905260248201527f4f776e61626c653a2063616c6c6572206973206e6f7420746865206f776e6572604482015290519081900360640190fd5b600080546040516001600160a01b03909116907f8be0079c531659141344cd1fd0a4f28419497f9722a3daafe3b4186f6b6457e0908390a3600080546001600160a01b0319169055565b6000546001600160a01b031690565b600081116108f3576040805162461bcd60e51b81526020600482015260126024820152710416d6f756e74206c657373207468616e20360741b604482015290519081900360640190fd5b3481146109315760405162461bcd60e51b815260040180806020018281038252602481526020018061108f6024913960400191505060405180910390fd5b33600081815260026020908152604091829020849055815184815291517fe1fffcc4923d04b559f4d29a8bfc6cda04eb5b0d3c460751c2402c5c5cc9109c9281900390910190a250565b6001546001600160a01b031681565b6109943086610b9f565b8411156109d25760405162461bcd60e51b815260040180806020018281038252602e815260200180611037602e913960400191505060405180910390fd5b8383016109df8682610c59565b604080516001600160a01b03881681526020810187905280820186905290517f23e6ffb3885673c24687dd3f205a06b6520f23b607ce871d9444344bc2e875db9181900360600190a1505050505050565b610a38610b44565b6001600160a01b0316610a4961089a565b6001600160a01b031614610aa4576040805162461bcd60e51b815260206004820181905260248201527f4f776e61626c653a2063616c6c6572206973206e6f7420746865206f776e6572604482015290519081900360640190fd5b6001600160a01b038116610ae95760405162461bcd60e51b8152600401808060200182810382526026815260200180610fb56026913960400191505060405180910390fd5b600080546040516001600160a01b03808516939216917f8be0079c531659141344cd1fd0a4f28419497f9722a3daafe3b4186f6b6457e091a3600080546001600160a01b0319166001600160a01b0392909216919091179055565b3390565b604080516001600160a01b038416602482015260448082018490528251808303909101815260649091019091526020810180516001600160e01b031663a9059cbb60e01b179052610b9a908490610cd7565b505050565b60006001600160a01b03821673eeeeeeeeeeeeeeeeeeeeeeeeeeeeeeeeeeeeeeee1415610bd757506001600160a01b03821631610c53565b816001600160a01b03166370a08231846040518263ffffffff1660e01b815260040180826001600160a01b0316815260200191505060206040518083038186803b158015610c2457600080fd5b505afa158015610c38573d6000803e3d6000fd5b505050506040513d6020811015610c4e57600080fd5b505190505b92915050565b6001546040805163076b7fbb60e51b815290516000926001600160a01b03169163ed6ff760916004808301926020929190829003018186803b158015610c9e57600080fd5b505afa158015610cb2573d6000803e3d6000fd5b505050506040513d6020811015610cc857600080fd5b50519050610b9a818484610e95565b610ce9826001600160a01b0316610f78565b610d3a576040805162461bcd60e51b815260206004820152601f60248201527f5361666545524332303a2063616c6c20746f206e6f6e2d636f6e747261637400604482015290519081900360640190fd5b60006060836001600160a01b0316836040518082805190602001908083835b60208310610d785780518252601f199092019160209182019101610d59565b6001836020036101000a0380198251168184511680821785525050505050509050019150506000604051808303816000865af19150503d8060008114610dda576040519150601f19603f3d011682016040523d82523d6000602084013e610ddf565b606091505b509150915081610e36576040805162461bcd60e51b815260206004820181905260248201527f5361666545524332303a206c6f772d6c6576656c2063616c6c206661696c6564604482015290519081900360640190fd5b805115610e8f57808060200190516020811015610e5257600080fd5b5051610e8f5760405162461bcd60e51b815260040180806020018281038252602a815260200180611065602a913960400191505060405180910390fd5b50505050565b6001600160a01b03821673eeeeeeeeeeeeeeeeeeeeeeeeeeeeeeeeeeeeeeee1415610f64576040516000906001600160a01b0385169083908381818185875af1925050503d8060008114610f05576040519150601f19603f3d011682016040523d82523d6000602084013e610f0a565b606091505b5090915050600181151514610f5e576040805162461bcd60e51b8152602060048201526015602482015274086deead8c8dc4ee840e8e4c2dce6cccae4408aa89605b1b604482015290519081900360640190fd5b50610b9a565b610b9a6001600160a01b0383168483610b48565b6000813f7fc5d2460186f7233c927e7db2dcc703c0e500b653ca82273b7bfad8045d85a470818114801590610fac57508115155b94935050505056fe4f776e61626c653a206e6577206f776e657220697320746865207a65726f2061646472657373506c65617365206465706f736974207468652066656520666f7220746865206c6f616e20666972737442616c616e6365206c657373207468616e20616d6f756e7420796f752061726520747279696e6720746f207769746864726177496e76616c69642062616c616e63652c207761732074686520666c6173684c6f616e207375636365737366756c3f5361666545524332303a204552433230206f7065726174696f6e20646964206e6f742073756363656564416d6f756e74206973206e6f74207468652073616d652061732076616c75652073656e74a26469706673582212206ce1737b1238754c7a12a670e75c47be7effc1b3d0aedcd173d830ccd11d46bd64736f6c634300060c0033",
  "immutableReferences": {},
  "source": "// SPDX-License-Identifier: MIT\npragma solidity ^0.6.6;\n\n// TASKS:\n// ☐ Finish tests\n// ☐ Document w/ natspec\n// ☐ Optimize & remove unnecessary code\n// ☐ Organize code sections w/ comment headers/dividers\n\nimport { ILendingPool, ILendingPoolAddressesProvider, IERC20 } from './Interfaces.sol';\nimport { FlashLoanReceiverBase } from './FlashLoanReceiverBase.sol';\n\ncontract FlashApp is FlashLoanReceiverBase {\n  mapping (address => uint256) private accounts;\n\n  // Lending pool address that will provide the loan should be passed on creation\n  constructor(address provider) FlashLoanReceiverBase(provider) public {}\n\n  event Deposit(address indexed from, uint256 amount);\n  event Withdrawal(address indexed from, uint256 amount);\n  event LoanInitiated(address indexed from, address reserve, uint256 amount, uint256 fee);\n  event LoanCompleted(address reserve, uint256 amount, uint256 fee);\n\n  // Allow user to deposit funds to contract\n  // Wraps deposited funds into WETH\n  // Used for Flash Loan premium (fee) deposit\n  function deposit(uint amount) public payable {\n\n    // Validate amount\n    require(amount > 0, \"Amount less than 0\");\n    require(amount == msg.value, \"Amount is not the same as value sent\");\n\n    // Update accounts with new amount deposited\n    accounts[msg.sender] = amount;\n\n    emit Deposit(msg.sender, amount);\n\n  }\n\n  // Allow user to withdraw funds from contract\n  function withdraw(uint amount) public {\n\n    // Validate amount\n    require(amount > 0, \"Amount must be greater than 0\");\n    require(accounts[msg.sender] >= amount, \"Balance less than amount you are trying to withdraw\");\n\n    // Transfer amount to user\n    require(payable(msg.sender).send(accounts[msg.sender]), \"Failed to withdraw amount\");\n\n    // Update accounts\n    accounts[msg.sender] -= amount;\n\n    emit Withdrawal(msg.sender, amount);\n\n  }\n\n  // Query the current balance of an account\n  function balanceFor(address account) public view returns (uint) {\n    return accounts[account];\n  }\n\n  // Once flash loan is received, this method is excuted\n  // After flashloan operation is completed, the amount + fee is paid back to the lending pool\n  // The method currently does nothing with the received loan(s), but emit events on successful\n  // loan completion for each of the assets loaned out\n  // Loan completion happens when the debt + premium fee is paid back to the lending pool\n  function executeOperation(address _reserve, uint256 _amount, uint256 _fee, bytes calldata) external override {\n\n    // Make sure loan was successful\n    require(_amount <= getBalanceInternal(address(this), _reserve), \"Invalid balance, was the flashLoan successful?\");\n\n    // Pay debt back to lending pool (amount owed + fee)\n    uint totalDebt = _amount + _fee;\n    transferFundsBackToPoolInternal(_reserve, totalDebt);\n\n    // Emit successful flashloan\n    emit LoanCompleted(_reserve, _amount, _fee);\n\n  }\n\n  // Attempt to retrieve a flashloan for requested amount\n  // For this project, there will only be 1 asset selected for each loan operation\n  function initiateFlashLoan(address token, uint256 amount) public {\n\n    // Validate input\n    require(accounts[msg.sender] > 0, \"Please deposit the fee for the loan first\");\n\n    bytes memory params = \"\";\n\n    // Initiate the flashloan with supplied params from client\n    ILendingPool lendingPool = ILendingPool(addressesProvider.getLendingPool());\n    lendingPool.flashLoan(address(this), token, amount, params);\n\n    emit LoanInitiated(msg.sender, token, amount, accounts[msg.sender]);\n\n  }\n\n}\n",
  "sourcePath": "/Users/traylorboy/Desktop/eidoo/FlashApp/flash-app/contracts/FlashApp.sol",
  "compiler": {
    "name": "solc",
    "version": "0.6.12+commit.27d51765.Emscripten.clang"
  },
  "schemaVersion": "3.4.1",
  "updatedAt": "2021-06-19T02:54:34.969Z",
  "devdoc": {
    "kind": "dev",
    "methods": {
      "owner()": {
        "details": "Returns the address of the current owner."
      },
      "renounceOwnership()": {
        "details": "Leaves the contract without owner. It will not be possible to call `onlyOwner` functions anymore. Can only be called by the current owner. NOTE: Renouncing ownership will leave the contract without an owner, thereby removing any functionality that is only available to the owner."
      },
      "transferOwnership(address)": {
        "details": "Transfers ownership of the contract to a new account (`newOwner`). Can only be called by the current owner."
      },
      "withdraw(address)": {
        "details": "Withdraw asset.",
        "params": {
          "_assetAddress": "Asset to be withdrawn."
        }
      }
    },
    "version": 1
  },
  "userdoc": {
    "kind": "user",
    "methods": {},
    "version": 1
  }
}