{
  "contractName": "WETHConverter",
  "abi": [
    {
      "inputs": [],
      "stateMutability": "nonpayable",
      "type": "constructor"
    },
    {
      "stateMutability": "payable",
      "type": "receive"
    },
    {
      "inputs": [
        {
          "internalType": "uint256",
          "name": "amount",
          "type": "uint256"
        }
      ],
      "name": "convert",
      "outputs": [],
      "stateMutability": "payable",
      "type": "function"
    },
    {
      "inputs": [
        {
          "internalType": "address",
          "name": "onBehalfOf",
          "type": "address"
        }
      ],
      "name": "requestWETHBalance",
      "outputs": [
        {
          "internalType": "uint256",
          "name": "",
          "type": "uint256"
        }
      ],
      "stateMutability": "view",
      "type": "function"
    }
  ],
  "bytecode": "0x60c06040527fe0fba4fc209b4948668006b2be61711b7f465bae0000000000000000000000006080527fd0a1e359811322d97991e03f863a0c30c2cf029c00000000000000000000000060a05234801561005857600080fd5b50600080546001600160a01b03191673a61ca04df33b72b235a8a28cfb535bb7a5271b7017905560805160601c60a05160601c61027b6100a76000398060a1525080610198525061027b6000f3fe60806040526004361061002d5760003560e01c80637a88eec814610039578063a3908e1b1461007e57610034565b3661003457005b600080fd5b34801561004557600080fd5b5061006c6004803603602081101561005c57600080fd5b50356001600160a01b031661009d565b60408051918252519081900360200190f35b61009b6004803603602081101561009457600080fd5b503561013e565b005b60007f00000000000000000000000000000000000000000000000000000000000000006001600160a01b03166370a08231836040518263ffffffff1660e01b815260040180826001600160a01b0316815260200191505060206040518083038186803b15801561010c57600080fd5b505afa158015610120573d6000803e3d6000fd5b505050506040513d602081101561013657600080fd5b505192915050565b34811461017c5760405162461bcd60e51b815260040180806020018281038252602f815260200180610217602f913960400191505060405180910390fd5b600080546040805163474cf53d60e01b81526001600160a01b037f0000000000000000000000000000000000000000000000000000000000000000811660048301523360248301819052604483018690529251929493169263474cf53d923492606480820193929182900301818588803b1580156101f957600080fd5b505af115801561020d573d6000803e3d6000fd5b5050505050505056fe416d6f756e7420636f6e76657274696e6720697320646966666572656e74207468616e20616d6f756e742073656e74a2646970667358221220c22fe629044a5aea81ba649720f7fe0dbebdfdffcfd6e4a47f92b313d00422be64736f6c634300060c0033",
  "immutableReferences": {
    "1370": [
      {
        "length": 32,
        "start": 408
      }
    ],
    "1376": [
      {
        "length": 32,
        "start": 161
      }
    ]
  },
  "source": "// SPDX-License-Identifier: MIT\n\n\npragma solidity 0.6.12;\n\nimport { IWETHGateway } from \"./Interfaces.sol\";\nimport { IERC20 } from \"./Interfaces.sol\";\n\n/// @title Native ETH to WETH Converter\n/// @dev Uses Kovan WETH as default\n/// @author Marques Traylor\ncontract WETHConverter {\n  /// @dev wethGateway Contract to convert callers native eth to weth\n  IWETHGateway wethGateway;\n\n  /// @dev All addresses are from the Kovan Public TestNet\n  address constant wETHGatewayProvider = address(0xA61ca04DF33B72b235a8A28CfB535bb7A5271B70);\n  address immutable poolProvider = address(0xE0fBa4Fc209b4948668006B2bE61711b7f465bAe);\n  address immutable WETH = address(0xd0A1E359811322d97991E03f863a0C30C2cF029C);\n\n  /// Address to the WETHGateway Contract\n  /// @dev The FlashApp contract is deployed on the kovan network\n  constructor()\n    public\n  {\n    wethGateway = IWETHGateway(wETHGatewayProvider);\n  }\n\n  /// Allows contract to receive ether payments\n  receive() payable external {}\n\n  function convert(uint amount) public payable {\n    require(\n      amount == msg.value,\n      \"Amount converting is different than amount sent\"\n    );\n\n    address payable onBehalfOf = payable(msg.sender);\n\n    // Deposit the native eth to the pool\n    wethGateway.depositETH\n    {\n      value: msg.value\n    }\n    (\n      poolProvider,\n      onBehalfOf,\n      uint16(0)\n    );\n  }\n\n  function requestWETHBalance(address onBehalfOf) public view returns (uint){\n    return IERC20(WETH).balanceOf(onBehalfOf);\n  }\n}\n",
  "sourcePath": "/Users/traylorboy/Desktop/eidoo/FlashApp/flash-app/contracts/WETHConverter.sol",
  "compiler": {
    "name": "solc",
    "version": "0.6.12+commit.27d51765.Emscripten.clang"
  },
  "schemaVersion": "3.4.1",
  "updatedAt": "2021-06-24T19:03:04.946Z",
  "devdoc": {
    "author": "Marques Traylor",
    "details": "Uses Kovan WETH as default",
    "kind": "dev",
    "methods": {
      "constructor": {
        "details": "The FlashApp contract is deployed on the kovan network"
      }
    },
    "stateVariables": {
      "wETHGatewayProvider": {
        "details": "All addresses are from the Kovan Public TestNet"
      },
      "wethGateway": {
        "details": "wethGateway Contract to convert callers native eth to weth"
      }
    },
    "title": "Native ETH to WETH Converter",
    "version": 1
  },
  "userdoc": {
    "kind": "user",
    "methods": {
      "constructor": "Address to the WETHGateway Contract"
    },
    "version": 1
  }
}